:100000000C9424010C9443010C9436030C94880640
:100010000C9441010C94B6050C9441010C944101DF
:100020000C9441010C9441010C9441010C94410148
:100030000C9441010C9441010C9429050C9441014C
:100040000C9441010C9441010C9437060C9441012D
:100050000C9441010C9441010C9441010C94410118
:100060000C9441010C944101000000000000005F6D
:1000700000000007000700147F147F14242A7F2A41
:10008000122313086462364955225000050300000C
:10009000001C2241000041221C0014083E081408E4
:1000A000083E0808005030000008080808080060F2
:1000B00060000020100804023E5149453E00427F86
:1000C000400042615149462141454B311814127F8D
:1000D0001027454545393C4A494930017109050316
:1000E0003649494936064949291E0036360000007E
:1000F0005636000008142241001414141414004150
:100100002214080201510906324979413E7E11113B
:10011000117E7F494949363E414141227F4141227A
:100120001C7F494949417F090909013E4149497AF2
:100130007F0808087F00417F41002040413F017F48
:10014000081422417F404040407F020C027F7F0420
:1001500008107F3E4141413E7F090909063E415159
:10016000215E7F09192946464949493101017F012C
:10017000013F4040403F1F2040201F3F4038403F4C
:100180006314081463070870080761514945430068
:100190007F41410002040810200041417F00040219
:1001A0000102044040404040000102040020545439
:1001B00054787F48444438384444442038444448C0
:1001C0007F3854545418087E0901020C5252523E92
:1001D0007F0804047800447D40002040443D007FB7
:1001E0001028440000417F40007C041804787C08FB
:1001F00004047838444444387C1414140808141453
:10020000187C7C080404084854545420043F44409B
:10021000203C4040207C1C2040201C3C4030403C86
:1002200044281028440C5050503C4464544C440022
:100230000836410000007F00000041360800100829
:10024000081008000000000011241FBECFEFD8E006
:10025000DEBFCDBF11E0A0E0B1E0EAE2FCE202C007
:1002600005900D92A638B107D9F723E0A6E8B1E0D2
:1002700001C01D92A539B207E1F70E94D1060C9486
:1002800013160C9400001F920F9200905F000F92C3
:1002900011242F933F934F935F936F937F938F938B
:1002A0009F93AF93BF93EF93FF93CF93DF93CDB71C
:1002B000DEB7AA97DEBFCDBF80918701813009F0FC
:1002C0008FC0809100018E3108F0B5C17DC080E003
:1002D00090E0A6E1B3E489879A87AB87BC8720E0EA
:1002E00030E04AE755E469857A858B859C850E94D4
:1002F0008E12DC01CB018D879E87AF87B88B20E003
:1003000030E040E85FE36D857E858F8598890E94A7
:10031000311188232CF481E090E09A8B898B3FC0C7
:1003200020E03FEF4FE757E46D857E858F85988904
:100330000E94891218164CF520E030E040E251E4AA
:1003400069857A858B859C850E948E12DC01CB01A4
:10035000BC01CD010E94A811DC01CB019A8B898BD5
:100360000FC080E991E09C8B8B8B8B899C890197D6
:10037000F1F79C8B8B8B89899A8901979A8B898B52
:1003800089899A89892B69F714C06D857E858F8547
:1003900098890E94A811DC01CB019A8B898B8989ED
:1003A0009A899E8B8D8B8D899E890197F1F79E8B03
:1003B0008D8B809100018E3128F4809100018F5F38
:1003C000809300010E949B0789E290E0FC018081FC
:1003D000882F90E084709927892B09F478CF2BC15E
:1003E00080918701823009F093C080918601843624
:1003F00008F021C181C080E090E0A6E1B3E48983E8
:100400009A83AB83BC8320E030E04AE755E46981FE
:100410007A818B819C810E948E12DC01CB018F8BB3
:10042000988FA98FBA8F20E030E040E85FE36F89B2
:10043000788D898D9A8D0E94311188232CF481E06A
:1004400090E09C8F8B8F3FC020E03FEF4FE757E459
:100450006F89788D898D9A8D0E94891218164CF5B6
:1004600020E030E040E251E469817A818B819C8117
:100470000E948E12DC01CB01BC01CD010E94A811AB
:10048000DC01CB019C8F8B8F0FC080E991E09E8FA8
:100490008D8F8D8D9E8D0197F1F79E8F8D8F8B8D1A
:1004A0009C8D01979C8F8B8F8B8D9C8D892B69F7F1
:1004B00014C06F89788D898D9A8D0E94A811DC01F6
:1004C000CB019C8F8B8F8B8D9C8D98A38F8F8F8D65
:1004D00098A10197F1F798A38F8F809186018436B8
:1004E00028F480918601865F809386010E949B0795
:1004F00086E891E00E94850C89E290E0FC01808111
:10050000882F90E084709927892B09F474CF93C0C9
:1005100080918701833009F08EC0809188018830F6
:1005200008F089C07DC080E090E0A6E1B3E48D834F
:100530009E83AF83B88720E030E04AE755E46D81C1
:100540007E818F8198850E948E12DC01CB0189A368
:100550009AA3ABA3BCA320E030E040E85FE369A12D
:100560007AA18BA19CA10E94311188232CF481E0F7
:1005700090E09EA38DA33FC020E03FEF4FE757E4FC
:1005800069A17AA18BA19CA10E94891218164CF531
:1005900020E030E040E251E46D817E818F819885DA
:1005A0000E948E12DC01CB01BC01CD010E94A8117A
:1005B000DC01CB019EA38DA30FC080E991E098A739
:1005C0008FA38FA198A50197F1F798A78FA38DA16D
:1005D0009EA101979EA38DA38DA19EA1892B69F752
:1005E00014C069A17AA18BA19CA10E94A811DC0171
:1005F000CB019EA38DA38DA19EA19AA789A789A5B2
:100600009AA50197F1F79AA789A780918801883068
:1006100028F4809188018F5F809388010E949B0756
:1006200089E290E0FC018081882F90E08470992716
:10063000892B09F478CF0000AA960FB6F894DEBF94
:100640000FBECDBFDF91CF91FF91EF91BF91AF91E1
:100650009F918F917F916F915F914F913F912F91DA
:100660000F9000925F000F901F9018951F920F92AD
:1006700000905F000F9211242F933F934F935F934D
:100680006F937F938F939F93AF93BF93EF93FF935A
:10069000CF93DF93CDB7DEB7AA97DEBFCDBF8091F2
:1006A0008701813009F08FC080910001863008F405
:1006B000B5C17DC080E090E0A6E1B3E489879A8768
:1006C000AB87BC8720E030E04AE755E469857A854E
:1006D0008B859C850E948E12DC01CB018D879E87C5
:1006E000AF87B88B20E030E040E85FE36D857E8522
:1006F0008F8598890E94311188232CF481E090E045
:100700009A8B898B3FC020E03FEF4FE757E46D8520
:100710007E858F8598890E94891218164CF520E0F5
:1007200030E040E251E469857A858B859C850E94A2
:100730008E12DC01CB01BC01CD010E94A811DC01AD
:10074000CB019A8B898B0FC080E991E09C8B8B8BBE
:100750008B899C890197F1F79C8B8B8B89899A896E
:1007600001979A8B898B89899A89892B69F714C09B
:100770006D857E858F8598890E94A811DC01CB014B
:100780009A8B898B89899A899E8B8D8B8D899E897D
:100790000197F1F79E8B8D8B80910001863028F0B8
:1007A000809100018150809300010E949B0789E2A3
:1007B00090E0FC018081882F90E088709927892B38
:1007C00009F478CF2BC180918701823009F093C062
:1007D00080918601882309F421C181C080E090E0E6
:1007E000A6E1B3E489839A83AB83BC8320E030E045
:1007F0004AE755E469817A818B819C810E948E123F
:10080000DC01CB018F8B988FA98FBA8F20E030E06D
:1008100040E85FE36F89788D898D9A8D0E94311150
:1008200088232CF481E090E09C8F8B8F3FC020E0E8
:100830003FEF4FE757E46F89788D898D9A8D0E943D
:10084000891218164CF520E030E040E251E469814D
:100850007A818B819C810E948E12DC01CB01BC01CC
:10086000CD010E94A811DC01CB019C8F8B8F0FC0A2
:1008700080E991E09E8F8D8F8D8D9E8D0197F1F790
:100880009E8F8D8F8B8D9C8D01979C8F8B8F8B8DE9
:100890009C8D892B69F714C06F89788D898D9A8D0D
:1008A0000E94A811DC01CB019C8F8B8F8B8D9C8DBE
:1008B00098A38F8F8F8D98A10197F1F798A38F8FB1
:1008C00080918601882329F0809186018A50809347
:1008D00086010E949B0786E891E00E94850C89E2D0
:1008E00090E0FC018081882F90E088709927892B07
:1008F00009F474CF93C080918701833009F08EC0D2
:1009000080918801882309F489C07DC080E090E04F
:10091000A6E1B3E48D839E83AF83B88720E030E007
:100920004AE755E46D817E818F8198850E948E1201
:10093000DC01CB0189A39AA3ABA3BCA320E030E0E8
:1009400040E85FE369A17AA18BA19CA10E943111CB
:1009500088232CF481E090E09EA38DA33FC020E08B
:100960003FEF4FE757E469A17AA18BA19CA10E94B8
:10097000891218164CF520E030E040E251E46D8118
:100980007E818F8198850E948E12DC01CB01BC0193
:10099000CD010E94A811DC01CB019EA38DA30FC045
:1009A00080E991E098A78FA38FA198A50197F1F70F
:1009B00098A78FA38DA19EA101979EA38DA38DA122
:1009C0009EA1892B69F714C069A17AA18BA19CA172
:1009D0000E94A811DC01CB019EA38DA38DA19EA135
:1009E0009AA789A789A59AA50197F1F79AA789A738
:1009F00080918801882329F080918801815080931B
:100A000088010E949B0789E290E0FC018081882F89
:100A100090E088709927892B09F478CF0000AA9676
:100A20000FB6F894DEBF0FBECDBFDF91CF91FF911F
:100A3000EF91BF91AF919F918F917F916F915F9156
:100A40004F913F912F910F9000925F000F901F9058
:100A500018951F920F9200905F000F9211242F9310
:100A60003F934F935F936F937F938F939F93AF9336
:100A7000BF93EF93FF93CF93DF93CDB7DEB7809112
:100A8000890190918A01A0918B01B0918C0101960E
:100A9000A11DB11D8093890190938A01A0938B01C0
:100AA000B0938C018091890190918A01A0918B0172
:100AB000B0918C0126E930E040E050E0BC01CD016E
:100AC0000E940713DC01CB01892B8A2B8B2B11F49D
:100AD0000E94F9088091890190918A01A0918B016F
:100AE000B0918C0128EC30E040E050E0BC01CD0139
:100AF0000E940713DC01CB01892B8A2B8B2B49F435
:100B000080918701882319F40E941A0802C00E946C
:100B10009B078091890190918A01A0918B01B091EE
:100B20008C0128E833E140E050E0BC01CD010E9497
:100B30000713DC01CB01892B8A2B8B2B11F40E942C
:100B40003A0D0000DF91CF91FF91EF91BF91AF91EE
:100B50009F918F917F916F915F914F913F912F91D5
:100B60000F9000925F000F901F9018951F920F92A8
:100B700000905F000F921124EF92FF920F931F934A
:100B80002F933F934F935F936F937F938F939F9395
:100B9000AF93BF93EF93FF93CF93DF93CDB7DEB7C0
:100BA0002091890130918A0140918B0150918C01F3
:100BB00080918D0190918E01A0918F01B091900153
:100BC00079018A01E81AF90A0A0B1B0BD801C7013F
:100BD000BC01CD010E94D711DC01CB019C01AD010C
:100BE000BC01CD010E94C510DC01CB019C01AD010F
:100BF00060E070E68AE697E40E943611DC01CB01E2
:100C0000BC01CD010E94A811DC01CB01809302013F
:100C100090930301A0930401B09305018091890191
:100C200090918A01A0918B01B0918C0180938D01EC
:100C300090938E01A0938F01B09390010000DF91FB
:100C4000CF91FF91EF91BF91AF919F918F917F9144
:100C50006F915F914F913F912F911F910F91FF9055
:100C6000EF900F9000925F000F901F9018951F92C9
:100C70000F9200905F000F9211242F933F934F9398
:100C80005F936F937F938F939F93AF93BF93EF93F4
:100C9000FF93CF93DF931F92CDB7DEB70E94280A50
:100CA000898389818B3321F481E0809391011AC07B
:100CB00089818A3331F41092910189810E943A0A24
:100CC00011C080919101813021F489810E943A0AFA
:100CD00009C086E0E2E1F1E0AAE0B1E001900D9206
:100CE0008A95E1F700000F90DF91CF91FF91EF918E
:100CF000BF91AF919F918F917F916F915F914F9134
:100D00003F912F910F9000925F000F901F901895C8
:100D10001F920F9200905F000F9211242F933F9328
:100D20004F935F936F937F938F939F93AF93BF93F3
:100D3000EF93FF93CF93DF93CDB7DEB783E290E0DD
:100D4000FC018081882F90E080749927892B29F4F9
:100D5000809187018F5F809387018091870188232D
:100D600019F40E941A0802C00E949B078091870113
:100D7000843010F0109287010000DF91CF91FF9135
:100D8000EF91BF91AF919F918F917F916F915F9103
:100D90004F913F912F910F9000925F000F901F9005
:100DA0001895CF93DF93CDB7DEB78AE290E020E8C5
:100DB000FC0120838BE290E02CE1FC01208384E2A3
:100DC00090E026E0FC01208385E290E020E4FC0135
:100DD000208387E290E02CE7FC01208388E290E00A
:100DE000FC01108289E690E02AE0FC0120838DE37B
:100DF00090E023E0FC01208388E690E025E0FC0100
:100E000020838DE690E020E1FC0120838BE690E0DA
:100E100020E4FC01208384E490E022E0FC012083B4
:100E200085E490E023E0FC01208387E490E029EF53
:100E3000FC0120838EE690E022E0FC0120838AE71B
:100E400090E027EEFC0120838BE790E0FC0110820C
:100E50008CE790E020E4FC0120838EE790E02EE315
:100E6000FC01208388E790E0FC0180819181CC0126
:100E7000A0E0B0E0BC01CD010E94D711DC01CB01A4
:100E800020E030E040EA50E4BC01CD010E948E1227
:100E9000DC01CB0120E030EC4FE754E4BC01CD0194
:100EA0000E943611DC01CB0120E030E040E85FE336
:100EB000BC01CD010E94C510DC01CB0120E030E077
:100EC00040E251E4BC01CD010E948E12DC01CB0155
:100ED0008093060190930701A0930801B093090144
:100EE00086E890E02FE33CE9FC013183208380E831
:100EF00090E022EAFC01208381E890E02AE1FC01F5
:100F0000208388E890E020ED37E0FC0131832083E6
:100F10008AE890E020ED37E0FC013183208378946B
:100F200085EC92E00E94E9090E943A0D80E091E090
:100F30000E94E70AFBCFCF93DF93CDB7DEB70E94C5
:100F4000BA0E60E080E00E948F1061E088E191E0DD
:100F50000E94ED0F67E080E00E948F1061E083E265
:100F600091E00E94ED0F6FE080E00E948F10809171
:100F70000001882F90E061E00E9410106FE083E292
:100F80000E948F1061E082E391E00E94ED0F69E121
:100F900080E00E948F1080918601882F90E061E0B0
:100FA0000E94101069E183E20E948F1061E08BE3E0
:100FB00091E00E94ED0F63E280E00E948F1080912B
:100FC0008801882F90E061E00E94101063E283E2C4
:100FD0000E948F1061E08FE391E00E94ED0F8091FD
:100FE0008701813051F46FE084E10E948F1061E04D
:100FF00087E491E00E94ED0F17C080918701823055
:1010000051F469E184E10E948F1061E087E491E08E
:101010000E94ED0F09C063E284E10E948F1061E03D
:1010200087E491E00E94ED0F0E94A2100000DF9182
:10103000CF910895CF93DF93CDB7DEB70E94BA0E5C
:1010400060E080E00E948F1061E08AE491E00E94FD
:10105000ED0F6AE080E00E948F1080910201909174
:101060000301A0910401B091050161E00E941010FC
:101070006AE08DE20E948F1061E088E591E00E94B5
:10108000ED0F64E180E00E948F1080910101882FB4
:1010900090E061E00E94101064E18DE20E948F10E8
:1010A00061E08CE591E00E94ED0F6EE180E00E942E
:1010B0008F108091060190910701A0910801B091D5
:1010C000090141E0BC01CD010E9443106EE18DE2B7
:1010D0000E948F1061E083E691E00E94ED0F68E2CC
:1010E00080E00E948F1061E08AE091E00E94ED0FA5
:1010F00068E28DE20E948F1061E086E691E00E9436
:10110000ED0F0E94A2100000DF91CF910895CF93C0
:10111000DF93CDB7DEB72E970FB6F894DEBF0FBEC4
:10112000CDBF6B877C878D879E8789E891E09A8702
:1011300089878B859C85AD85BE8589839A83AB83A2
:10114000BC838091890190918A01A0918B01B0911B
:101150008C018D839E83AF83B88726C089859A854D
:10116000FC0120813181428153818D819E81AF813B
:10117000B88582179307A407B507B0F48D819E81C7
:10118000AF81B8850196A11DB11D8D839E83AF836C
:10119000B88789819A81AB81BC810197A109B10986
:1011A00089839A83AB83BC8389819A81AB81BC811B
:1011B000892B8A2B8B2B91F689859A85FC0180815E
:1011C0009181A281B3818F3F9F4FAF4FBF4F39F4C1
:1011D00089859A85FC011082118212821382000097
:1011E0002E960FB6F894DEBF0FBECDBFDF91CF9124
:1011F0000895CF93DF93CDB7DEB78CE790E0FC0185
:1012000080818034A9F58CE790E021E4FC01208303
:101210008EE790E02DE3FC01208388E790E0FC015D
:1012200080819181CC01A0E0B0E0BC01CD010E94A1
:10123000D711DC01CB0120E030E04AEF52E4BC01E1
:10124000CD010E948E12DC01CB0120E030EC4FE793
:1012500054E4BC01CD010E943611DC01CB01BC017C
:10126000CD010E94A811DC01CB018093010148C08F
:101270008CE790E020E4FC0120838EE790E02EE3F1
:10128000FC01208388E790E0FC0180819181CC0102
:10129000A0E0B0E0BC01CD010E94D711DC01CB0180
:1012A00020E030E040EA50E4BC01CD010E948E1203
:1012B000DC01CB0120E030EC4FE754E4BC01CD0170
:1012C0000E943611DC01CB0120E030E040E85FE312
:1012D000BC01CD010E94C510DC01CB0120E030E053
:1012E00040E251E4BC01CD010E948E12DC01CB0131
:1012F0008093060190930701A0930801B093090120
:101300008091060190910701A0910801B091090117
:1013100020E030E04CE052E4BC01CD010E943111EC
:101320008823B4F08091060190910701A0910801F3
:10133000B091090120E030E044E252E4BC01CD016B
:101340000E948912181624F0809101018C3350F408
:101350008BE290E02BE230E0F90120812068FC0173
:10136000208333C08091060190910701A09108016C
:10137000B091090120E030E04CE052E4BC01CD0125
:101380000E94891288230CF420C08091060190915C
:101390000701A0910801B091090120E030E044E28A
:1013A00052E4BC01CD010E94311118160CF40DC09D
:1013B000809101018C3348F08BE290E02BE230E029
:1013C000F90120812F77FC0120830000DF91CF916C
:1013D0000895CF93DF9300D0CDB7DEB79A8389838A
:1013E00085EC90E029813A81232F3327FC0120836B
:1013F00084EC90E02981FC01208381EC90E028E9D5
:10140000FC01208382EC90E026E0FC0120830000B8
:101410000F900F90DF91CF910895CF93DF931F929C
:10142000CDB7DEB78983000080EC90E0FC018081BD
:10143000882F90E080729927892BB1F386EC90E099
:101440002981FC01208300000F90DF91CF91089546
:10145000CF93DF93CDB7DEB7000080EC90E0FC01C6
:1014600080818823D4F786EC90E0FC018081DF91B5
:10147000CF910895CF93DF931F92CDB7DEB78983C5
:1014800089818A33C9F080919201882F90E08D562E
:101490009E4F2981FC01208380919201882F90E04A
:1014A0008D569E4FFC0180810E940D0A8091920111
:1014B0008F5F8093920186C089818A3321F5809164
:1014C0009201873001F51092920183E991E0892F12
:1014D0008F9383E991E08F938AE091E0892F8F9336
:1014E0008AE091E08F930E9429130F900F900F9044
:1014F0000F9088E0EBE6F1E0A3E9B1E001900D92F6
:101500008A95E1F75FC089818A3321F58091920144
:10151000863001F51092920183E991E0892F8F9333
:1015200083E991E08F938AE091E0892F8F938AE09D
:1015300091E08F930E9429130F900F900F900F90BE
:1015400088E0EBE6F1E0A3E9B1E001900D928A9525
:10155000E1F738C089818A33C9F4809192018830DB
:10156000A8F01092920186E0E2E1F1E0AAE0B1E099
:1015700001900D928A95E1F788E0EBE6F1E0A3E9AE
:10158000B1E001900D928A95E1F71CC089818A3300
:10159000C9F4809192018630A8F41092920186E0FD
:1015A000E2E1F1E0AAE0B1E001900D928A95E1F765
:1015B00088E0EBE6F1E0A3E9B1E001900D928A95B5
:1015C000E1F700C000000F90DF91CF910895CF9216
:1015D000DF92EF92FF92CF93DF93CDB7DEB7A19763
:1015E0000FB6F894DEBF0FBECDBF99A388A380E1EC
:1015F000E3E7F1E0DE01509601900D928A95E1F764
:1016000080918801882341F488E890E020ED37E05C
:10161000FC01318320836BC11982F4C088E890E01B
:101620002981222F30E0220F331FAE014F5F5F4F21
:10163000240F351F215F3F4FF90120813181FC01CB
:101640003183208388A199A1FC018081882F90E0BB
:10165000092E000CAA0BBB0BBC01CD010E94D911B5
:10166000DC01CB0120E030E040E851E4BC01CD01D9
:101670000E948E12DC01CB019C01AD0160E070E69E
:101680008AE697E40E943611DC01CB016C017D01F2
:1016900080918801882F90E0092E000CAA0BBB0BCB
:1016A000BC01CD010E94D911DC01CB019C01AD012F
:1016B00060E070E080E091E40E943611DC01CB0133
:1016C0009C01AD01C701B6010E948E12DC01CB0165
:1016D000BC01CD010E94A811DC01CB01BC01CD01F0
:1016E0000E94870888E890E0FC0180819181803D1C
:1016F000974009F084C08BE290E02BE230E0F901E2
:1017000020812068FC01208380E090E0AAEFB3E410
:101710008A839B83AC83BD8320E030E04AE755E4B5
:101720006A817B818C819D810E948E12DC01CB01BC
:101730008E839F83A887B98720E030E040E85FE38D
:101740006E817F81888599850E94311188232CF4D0
:1017500081E090E09B878A873FC020E03FEF4FE722
:1017600057E46E817F81888599850E9489121816B9
:101770004CF520E030E040E251E46A817B818C81CD
:101780009D810E948E12DC01CB01BC01CD010E9423
:10179000A811DC01CB019B878A870FC080E991E00B
:1017A0009D878C878C859D850197F1F79D878C8718
:1017B0008A859B8501979B878A878A859B85892B4C
:1017C00069F714C06E817F81888599850E94A81170
:1017D000DC01CB019B878A878A859B859F878E87C3
:1017E0008E859F850197F1F79F878E878BE290E02A
:1017F0002BE230E0F90120812F77FC0120838981E1
:101800008F5F8983809188019981981708F406CFAA
:1018100080918801898367C088E890E02981222F20
:1018200030E0220F331FAE014F5F5F4F240F351F93
:10183000215F3F4FF90120813181FC0131832083F9
:1018400088A199A1FC018081882F90E0092E000CCD
:10185000AA0BBB0BBC01CD010E94D911DC01CB014D
:1018600020E030E040E851E4BC01CD010E948E123E
:10187000DC01CB019C01AD0160E070E68AE697E4F3
:101880000E943611DC01CB016C017D018091880141
:10189000882F90E0092E000CAA0BBB0BBC01CD01D8
:1018A0000E94D911DC01CB019C01AD0160E070E028
:1018B00080E091E40E943611DC01CB019C01AD0176
:1018C000C701B6010E948E12DC01CB01BC01CD0123
:1018D0000E94A811DC01CB01BC01CD010E94870848
:1018E0008981815089838981882309F095CF0000FF
:1018F000A1960FB6F894DEBF0FBECDBFDF91CF919A
:10190000FF90EF90DF90CF900895CF93DF9300D0BA
:10191000CDB7DEB79A8389838AE890E029813A813E
:10192000F9012081422F50E064E1649F9001659F9E
:10193000300D11242053384FFC01318320830000E7
:101940000F900F90DF91CF9108951F93CF93DF9366
:1019500000D0CDB7DEB789836A8388E290E028E2C1
:1019600030E0F90120812F7BFC0120838A818823CC
:1019700051F088E290E028E230E0F901208128600F
:10198000FC01208309C088E290E028E230E0F90100
:101990002081277FFC01208310E03CC08981882FB3
:1019A00090E0212F30E047E050E0BA01621B730B5A
:1019B0009B0102C0959587952A95E2F7817099273A
:1019C000892B51F088E290E028E230E0F901208193
:1019D0002061FC01208309C088E290E028E230E029
:1019E000F90120812F7EFC01208388E290E028E22B
:1019F00030E0F90120812062FC01208388E290E040
:101A000028E230E0F90120812F7DFC012083812F25
:101A100011E0180F183010F288E290E028E230E070
:101A2000F90120812064FC01208300000F900F90B9
:101A3000DF91CF911F910895CF93DF931F92CDB780
:101A4000DEB7898360E089810E94A50C00000F90B9
:101A5000DF91CF910895CF93DF931F92CDB7DEB77B
:101A6000898361E089810E94A50C00000F90DF91BD
:101A7000CF9108950F931F93CF93DF93CDB7DEB728
:101A80006C970FB6F894DEBF0FBECDBF87E290E033
:101A900027E230E0F90120812064FC01208387E205
:101AA00090E027E230E0F90120812460FC012083EE
:101AB00087E290E027E230E0F90120812860FC0114
:101AC000208387E290E027E230E0F9012081206165
:101AD000FC01208387E290E027E230E0F9012081D9
:101AE0002062FC01208388E290E028E230E0F901E6
:101AF00020812460FC01208388E290E028E230E02D
:101B0000F90120812064FC01208380E090E0A0E2C4
:101B1000B1E489839A83AB83BC8320E030E04AE759
:101B200053E469817A818B819C810E948E12DC0151
:101B3000CB018B8B9C8BAD8BBE8B20E030E040E8E3
:101B40005FE36B897C898D899E890E94311188238E
:101B50002CF481E090E0988F8F8B3FC020E03FEF26
:101B60004FE757E46B897C898D899E890E94891291
:101B700018164CF520E030E040E251E469817A81AA
:101B80008B819C810E948E12DC01CB01BC01CD01B6
:101B90000E94A811DC01CB01988F8F8B0FC089E1C7
:101BA00090E09A8F898F898D9A8D0197F1F79A8F9E
:101BB000898F8F89988D0197988F8F8B8F89988DBA
:101BC000892B69F714C06B897C898D899E890E9455
:101BD000A811DC01CB01988F8F8B8F89988D9C8FFA
:101BE0008B8F8B8D9C8D0197F1F79C8F8B8F88E26B
:101BF00090E028E230E0F90120812B7FFC01208376
:101C000080E090E0ACE8B2E48D839E83AF83B88738
:101C100020E030E04AE753E46D817E818F81988532
:101C20000E948E12DC01CB0189879A87AB87BC8723
:101C300020E030E040E85FE369857A858B859C850C
:101C40000E94311188232CF481E090E09E878D87DB
:101C50003FC020E03FEF4FE757E469857A858B85E9
:101C60009C850E94891218164CF520E030E040E275
:101C700051E46D817E818F8198850E948E12DC01F6
:101C8000CB01BC01CD010E94A811DC01CB019E87D4
:101C90008D870FC089E190E0988B8F878F85988919
:101CA0000197F1F7988B8F878D859E8501979E8789
:101CB0008D878D859E85892B69F714C069857A8506
:101CC0008B859C850E94A811DC01CB019E878D87A6
:101CD0008D859E859A8B898B89899A890197F1F7E1
:101CE0009A8B898B88E290E028E230E0F90120812C
:101CF0002460FC01208388E290E028E230E0F901D2
:101D000020812F7BFC01208381E20E941C0D83E156
:101D10000E941C0D86E00E941C0D82EC0E941C0D8E
:101D200080E20E941C0D89E00E941C0D80E80E9448
:101D30001C0D80E40E941C0D00E010E005C080E056
:101D40000E942B0D0F5F1F4F083FF1E01F07B8F3F4
:101D500088E00E941C0D8CE00E941C0D00006C9617
:101D60000FB6F894DEBF0FBECDBFDF91CF911F91AC
:101D70000F9108950F931F93CF93DF93CDB7DEB7E5
:101D800080E80E941C0D80E40E941C0D10929303B9
:101D90001092940300E010E007C0C80185569E4FE2
:101DA000FC0110820F5F1F4F083FF1E01F07A8F3EF
:101DB0000000DF91CF911F910F910895CF93DF9392
:101DC00000D000D01F92CDB7DEB78B836C834D83DC
:101DD0008C81869586958695882F90E044E5489F6E
:101DE0009001499F300D11248B81882F90E0820F44
:101DF000931F85569E4F9A8389838D818823C9F0CE
:101E000089819A81FC018081482F8C81882F90E004
:101E10009C012770332781E090E002C0880F991F52
:101E20002A95E2F7842B282F89819A81FC0120834F
:101E300019C089819A81FC018081482F8C81882F6B
:101E400090E09C012770332781E090E002C0880F6A
:101E5000991F2A95E2F780958423282F89819A81FA
:101E6000FC01208300000F900F900F900F900F90B7
:101E7000DF91CF9108950F931F93CF93DF9300D0FD
:101E800000D01F92CDB7DEB78C836D8310E065C0A4
:101E900000E04EC08C81882F90E09C0120523109D7
:101EA0009D81812F692F0E94FB12482F50E0C901AC
:101EB000880F991F880F991F820F931F840F951FFA
:101EC00088599F4F9A83898389819A81FC018491E3
:101ED0008B838B81282F30E09D81802F692F0E947A
:101EE000FB12882F90E0A90102C0559547958A956D
:101EF000E2F7CA0181709927892B61F080919403E0
:101F0000982F900F80919303810F41E0692F0E94D9
:101F1000DE0E0BC080919403982F900F8091930355
:101F2000810F40E0692F0E94DE0E802F01E0080F34
:101F3000402F50E08D81282F30E0C901880F991F74
:101F4000880F991F880F991F821B930B48175907F9
:101F50000CF4A0CF812F11E0180F412F50E08D819C
:101F6000282F30E0C901880F991F880F991F820F11
:101F7000931F481759070CF48BCF209193039D8131
:101F8000892F880F880F890F820F8F5F80939303AB
:101F900080919303843570F0109293032091940301
:101FA0009D81892F880F880F880F891B820F8F5F73
:101FB0008093940380919403803320F010929303D4
:101FC0001092940300000F900F900F900F900F90BD
:101FD000DF91CF911F910F910895CF93DF9300D0A0
:101FE0001F92CDB7DEB79A8389836B830CC089813A
:101FF0009A819C012F5F3F4F3A832983FC018081A6
:102000006B810E943B0F89819A81FC01808188232A
:1020100071F700000F900F900F90DF91CF9108950E
:10202000CF93DF93CDB7DEB727970FB6F894DEBF17
:102030000FBECDBF9E838D836F838E818F938D81E5
:102040008F9383E891E0892F8F9383E891E08F93BA
:10205000CE0101969F938F930E9429130F900F90AA
:102060000F900F900F900F906F81CE0101960E94FC
:10207000ED0F000027960FB6F894DEBF0FBECDBF60
:10208000DF91CF910895CF93DF93CDB7DEB72A9735
:102090000FB6F894DEBF0FBECDBF6E837F838887F7
:1020A00099874A8720E030E040E251E46E817F81E9
:1020B000888599850E948E12DC01CB01BC01CD017F
:1020C0000E94A811DC01CB01292F2F938F9383E865
:1020D00091E0892F8F9383E891E08F93CE01019651
:1020E0009F938F930E9429130F900F900F900F9042
:1020F0000F900F908C818D838B818C838EE28B83EC
:102100006A85CE0101960E94ED0F00002A960FB657
:10211000F894DEBF0FBECDBFDF91CF910895CF936E
:10212000DF9300D0CDB7DEB789836A83898180933E
:1021300093038A818093940300000F900F90DF91A6
:10214000CF9108950F931F93CF93DF93CDB7DEB751
:1021500080E80E941C0D80E40E941C0D00E010E04D
:1021600009C0C80185569E4FFC0180810E942B0D3D
:102170000F5F1F4F083FF1E01F0798F30000DF914A
:10218000CF911F910F9108955058BB27AA270E9405
:10219000DC100C944F120E94411238F00E94481239
:1021A00020F039F49F3F19F426F40C943E120EF4FB
:1021B000E095E7FB0C943812E92F0E94601258F367
:1021C000BA17620773078407950720F079F4A6F51C
:1021D0000C9482120EF4E0950B2EBA2FA02D0B0159
:1021E000B90190010C01CA01A0011124FF27591B5C
:1021F00099F0593F50F4503E68F11A16F040A22F62
:10220000232F342F4427585FF3CF469537952795D2
:10221000A795F0405395C9F77EF41F16BA0B620BD1
:10222000730B840BBAF09150A1F0FF0FBB1F661F18
:10223000771F881FC2F70EC0BA0F621F731F841F5B
:1022400048F4879577956795B795F7959E3F08F081
:10225000B0CF9395880F08F09927EE0F9795879543
:1022600008950E94141208F481E008950E944A1112
:102270000C944F120E94481258F00E94411240F0F4
:1022800029F45F3F29F00C94381251110C948312F9
:102290000C943E120E94601268F39923B1F3552307
:1022A00091F3951B550BBB27AA2762177307840769
:1022B00038F09F5F5F4F220F331F441FAA1FA9F3FF
:1022C00035D00E2E3AF0E0E832D091505040E695ED
:1022D000001CCAF72BD0FE2F29D0660F771F881F4E
:1022E000BB1F261737074807AB07B0E809F0BB0B41
:1022F000802DBF01FF2793585F4F3AF09E3F510555
:1023000078F00C9438120C9483125F3FE4F3983EFB
:10231000D4F3869577956795B795F7959F5FC9F73D
:10232000880F911D9695879597F90895E1E0660FBE
:10233000771F881FBB1F621773078407BA0720F037
:10234000621B730B840BBA0BEE1F88F7E0950895A0
:102350000E94681288F09F5798F0B92F9927B751BB
:10236000B0F0E1F0660F771F881F991F1AF0BA9539
:10237000C9F714C0B13091F00E948212B1E0089503
:102380000C948212672F782F8827B85F39F0B93FF5
:10239000CCF3869577956795B395D9F73EF49095EC
:1023A0008095709561957F4F8F4F9F4F0895E8946A
:1023B00009C097FB3EF490958095709561957F4F8D
:1023C0008F4F9F4F9923A9F0F92F96E9BB2793953B
:1023D000F695879577956795B795F111F8CFFAF44B
:1023E000BB0F11F460FF1BC06F5F7F4F8F4F9F4F7C
:1023F00016C0882311F096E911C0772321F09EE8DA
:10240000872F762F05C0662371F096E8862F70E03F
:1024100060E02AF09A95660F771F881FDAF7880F19
:102420009695879597F90895990F0008550FAA0B6F
:10243000E0E8FEEF16161706E807F907C0F01216D7
:102440001306E407F50798F0621B730B840B950BDA
:1024500039F40A2661F0232B242B252B21F408952F
:102460000A2609F4A140A6958FEF811D811D0895CC
:1024700097F99F6780E870E060E008959FEF80EC37
:10248000089500240A9416161706180609060895DA
:1024900000240A9412161306140605060895092E40
:1024A0000394000C11F4882352F0BB0F40F4BF2BAF
:1024B00011F460FF04C06F5F7F4F8F4F9F4F0895EF
:1024C00057FD9058440F551F59F05F3F71F04795E5
:1024D000880F97FB991F61F09F3F79F087950895CA
:1024E000121613061406551FF2CF4695F1DF08C0E9
:1024F000161617061806991FF1CF86957105610506
:1025000008940895E894BB2766277727CB0197F9AD
:1025100008950E94141208F48FEF08950E94A112EA
:102520000C944F120E94411238F00E94481220F081
:10253000952311F00C9438120C943E1211240C9433
:1025400083120E94601270F3959FC1F3950F50E0C3
:10255000551F629FF001729FBB27F00DB11D639F55
:10256000AA27F00DB11DAA1F649F6627B00DA11DFB
:10257000661F829F2227B00DA11D621F739FB00DA1
:10258000A11D621F839FA00D611D221F749F332711
:10259000A00D611D231F849F600D211D822F762FAA
:1025A0006A2F11249F5750409AF0F1F088234AF087
:1025B000EE0FFF1FBB1F661F771F881F91505040F3
:1025C000A9F79E3F510580F00C9438120C948312A9
:1025D0005F3FE4F3983ED4F3869577956795B7957A
:1025E000F795E7959F5FC1F7FE2B880F911D969594
:1025F000879597F90895991B79E004C0991F96175C
:1026000008F0961B881F7A95C9F780950895A1E276
:102610001A2EAA1BBB1BFD010DC0AA1FBB1FEE1F5C
:10262000FF1FA217B307E407F50720F0A21BB30BA7
:10263000E40BF50B661F771F881F991F1A9469F723
:1026400060957095809590959B01AC01BD01CF017F
:102650000895AEE0B0E0EFE2F3E10C94EA150D89E5
:102660001E8986E08C831A8309838FEF9FE79E8300
:102670008D83AE01475E5F4F6F89788DCE010196E5
:102680000E944B13EF81F885E00FF11F10822E9608
:10269000E4E00C940616ABE0B0E0E1E5F3E10C9465
:1026A000DC156C017B018A01FC0117821682838193
:1026B00081FFCCC1CE0101963C01F6019381F70167
:1026C00093FD859193FF81917F01882309F4BAC11D
:1026D000853239F493FD859193FF81917F01853295
:1026E00029F4B60190E00E944215E7CF912C212CED
:1026F000312CFFE1F315D8F08B3279F038F48032C9
:1027000079F08332A1F4232D20611DC08D3261F058
:10271000803369F4232D216016C0832D8260382E0A
:10272000E32DE4603E2E2AC0F32DF8601DC037FC77
:102730002DC020ED280F2A3040F08E32B9F436FC3F
:1027400081C1232D2064322E19C036FE06C08AE0D6
:10275000989E200D1124922E11C0EAE02E9E200D8D
:102760001124222EF32DF0623F2E08C08C3621F466
:10277000832D8068382E02C0883641F4F70193FD1E
:10278000859193FF81917F018111B3CF982F9F7D18
:102790009554933028F40C5F1F4F9FE399830DC02D
:1027A000833631F0833771F0833509F059C021C089
:1027B000F801808189830E5F1F4F88248394912CB8
:1027C000530113C02801F2E04F0E511CF801A08004
:1027D000B18036FE03C0692D70E002C06FEF7FEF5D
:1027E000C5010E9437154C018201F32DFF773F2E62
:1027F00016C0280122E0420E511CF801A080B180D1
:1028000036FE03C0692D70E002C06FEF7FEFC50197
:102810000E942C154C01F32DF0683F2E820133FCF1
:102820001BC0822D90E088169906B0F4B60180E2B4
:1028300090E00E9442152A94F4CFF50137FC85916F
:1028400037FE81915F01B60190E00E944215211090
:102850002A9421E0821A91088114910471F7E8C04A
:10286000843611F0893641F5F80137FE07C06081E2
:102870007181828193810C5F1F4F08C060817181DB
:10288000072E000C880B990B0E5F1F4FF32DFF7660
:102890003F2E97FF09C090958095709561957F4F69
:1028A0008F4F9F4FF0683F2E2AE030E0A3010E9437
:1028B0007E15882E861845C0853731F4232D2F7E4E
:1028C000B22E2AE030E025C0932D997FB92E8F36A5
:1028D000C1F018F4883579F0B5C0803719F0883721
:1028E00021F0B0C0E92FE061BE2EB4FE0DC0FB2D7B
:1028F000F460BF2E09C034FE0AC0292F2660B22E14
:1029000006C028E030E005C020E130E002C020E150
:1029100032E0F801B7FE07C0608171818281938146
:102920000C5F1F4F06C06081718180E090E00E5FF8
:102930001F4FA3010E947E15882E8618FB2DFF775E
:102940003F2E36FE0DC0232D2E7FA22E891458F463
:1029500034FE0BC032FC09C0832D8E7EA82E05C02C
:10296000B82CA32C03C0B82C01C0B92CA4FE0FC0F6
:10297000FE01E80DF11D8081803321F49A2D997EAE
:10298000A92E09C0A2FE06C0B394B39404C08A2D38
:10299000867809F0B394A3FC11C0A0FE06C0B2145F
:1029A00088F4280C922C9B180EC0B21460F4B60167
:1029B00080E290E00E944215B394F7CFB21418F46D
:1029C0002B1802C0982C212CA4FE10C0B60180E365
:1029D00090E00E944215A2FE17C0A1FC03C088E748
:1029E00090E002C088E590E0B6010CC08A2D8678A0
:1029F00059F0A1FE02C08BE201C080E2A7FC8DE28B
:102A0000B60190E00E944215891438F4B60180E3C3
:102A100090E00E9442159A94F7CF8A94F301E80D52
:102A2000F11D8081B60190E00E9442158110F5CF22
:102A3000222009F442CEB60180E290E00E944215C5
:102A40002A94F6CFF6018681978102C08FEF9FEF1F
:102A50002B96E2E10C94F815FC0105906150704052
:102A60000110D8F7809590958E0F9F1F0895FC0157
:102A70006150704001900110D8F7809590958E0FAD
:102A80009F1F08950F931F93CF93DF93FB01238123
:102A900021FD03C08FEF9FEF2CC022FF16C046819F
:102AA0005781248135814217530744F4A081B181B5
:102AB0009D012F5F3F4F318320838C932681378187
:102AC0002F5F3F4F3783268314C08B01EC01FB013E
:102AD0000084F185E02D0995892BE1F6D801169641
:102AE0008D919C911797019617969C938E931697AC
:102AF000CE01DF91CF911F910F910895FA01AA277E
:102B0000283051F1203181F1E8946F936E7F6E5F30
:102B10007F4F8F4F9F4FAF4FB1E03ED0B4E03CD0DE
:102B2000670F781F891F9A1FA11D680F791F8A1FC1
:102B3000911DA11D6A0F711D811D911DA11D20D028
:102B400009F468943F912AE0269F11243019305DE2
:102B50003193DEF6CF010895462F4770405D4193D3
:102B6000B3E00FD0C9F7F6CF462F4F70405D4A3320
:102B700018F0495D31FD4052419302D0A9F7EACFE8
:102B8000B4E0A6959795879577956795BA95C9F717
:102B900000976105710508959B01AC010A2E06940A
:102BA0005795479537952795BA95C9F7620F731FC3
:102BB000841F951FA01D08952F923F924F925F9200
:102BC0006F927F928F929F92AF92BF92CF92DF923D
:102BD000EF92FF920F931F93CF93DF93CDB7DEB7A2
:102BE000CA1BDB0B0FB6F894DEBF0FBECDBF099436
:102BF0002A88398848885F846E847D848C849B848D
:102C0000AA84B984C884DF80EE80FD800C811B819A
:102C1000AA81B981CE0FD11D0FB6F894DEBF0FBEC9
:0A2C2000CDBFED010895F894FFCF39
:102C2A00054650000000000010423132307838303A
:102C3A0000004552524F2100506172616D657472F5
:102C4A006F73007E7E7E7E7E7E7E7E7E7E7E7E7E32
:102C5A007E00726573702F6D696E00254F320076A3
:102C6A006F6C2E204F32002D3E0053696E616973DE
:102C7A00205669746169730062706D002520537073
:102C8A004F3200BA43006D6D486700726573657410
:102C9A002E2000D007CA08C409BE0AB80BB20CAC71
:062CAA000DA60E257500C9
:00000001FF
