:100000000C9424010C9443010C9407020C944101BC
:100010000C9441010C940B030C9441010C9441018C
:100020000C9441010C9441010C9441010C94410148
:100030000C9441010C9441010C94CB020C944101AD
:100040000C9441010C9441010C9441010C94410128
:100050000C9441010C9441010C9441010C94410118
:100060000C9441010C944101000000000000005F6D
:1000700000000007000700147F147F14242A7F2A41
:10008000122313086462364955225000050300000C
:10009000001C2241000041221C0014083E081408E4
:1000A000083E0808005030000008080808080060F2
:1000B00060000020100804023E5149453E00427F86
:1000C000400042615149462141454B311814127F8D
:1000D0001027454545393C4A494930017109050316
:1000E0003649494936064949291E0036360000007E
:1000F0005636000008142241001414141414004150
:100100002214080201510906324979413E7E11113B
:10011000117E7F494949363E414141227F4141227A
:100120001C7F494949417F090909013E4149497AF2
:100130007F0808087F00417F41002040413F017F48
:10014000081422417F404040407F020C027F7F0420
:1001500008107F3E4141413E7F090909063E415159
:10016000215E7F09192946464949493101017F012C
:10017000013F4040403F1F2040201F3F4038403F4C
:100180006314081463070870080761514945430068
:100190007F41410002040810200041417F00040219
:1001A0000102044040404040000102040020545439
:1001B00054787F48444438384444442038444448C0
:1001C0007F3854545418087E0901020C5252523E92
:1001D0007F0804047800447D40002040443D007FB7
:1001E0001028440000417F40007C041804787C08FB
:1001F00004047838444444387C1414140808141453
:10020000187C7C080404084854545420043F44409B
:10021000203C4040207C1C2040201C3C4030403C86
:1002200044281028440C5050503C4464544C440022
:100230000836410000007F00000041360800100829
:10024000081008000000000011241FBECFEFD8E006
:10025000DEBFCDBF11E0A0E0B1E0E8E7F4E102C00D
:1002600005900D92AE30B107D9F723E0AEE0B1E0D2
:1002700001C01D92A131B207E1F70E9470030C94F6
:100280003A0A0C9400001F920F9200905F000F92A8
:1002900011242F933F934F935F936F937F938F938B
:1002A0009F93AF93BF93EF93FF93CF93DF93CDB71C
:1002B000DEB72E97DEBFCDBF809100018E3108F0F2
:1002C0008BC07FC080E090E0A6E1B3E489839A838D
:1002D000AB83BC8320E030E04AE755E469817A8152
:1002E0008B819C810E941809DC01CB018D839E8348
:1002F000AF83B88720E030E040E85FE36D817E8126
:100300008F8198850E94920888232CF481E090E0E8
:100310009A8789873FC020E03FEF4FE757E46D8120
:100320007E818F8198850E94130918164CF520E074
:1003300030E040E251E469817A818B819C810E94A6
:100340001809DC01CB01BC01CD010E949708DC013A
:10035000CB019A8789870FC080E991E09C878B87C2
:100360008B859C850197F1F79C878B8789859A857A
:1003700001979A87898789859A85892B69F714C09F
:100380006D817E818F8198850E949708DC01CB0169
:100390009A87898789859A859E878D878D859E8591
:1003A0000197F1F79E878D87809100018E3128F4A7
:1003B000809100018F5F80930001809100010E9475
:1003C000390489E290E0FC018081882F90E08470FC
:1003D0009927892B09F476CF00002E960FB6F89452
:1003E000DEBF0FBECDBFDF91CF91FF91EF91BF91E7
:1003F000AF919F918F917F916F915F914F913F91BD
:100400002F910F9000925F000F901F9018951F92F0
:100410000F9200905F000F9211242F933F934F9300
:100420005F936F937F938F939F93AF93BF93EF935C
:10043000FF93CF93DF93CDB7DEB72E97DEBFCDBF4F
:1004400080910001863008F48BC07FC080E090E08E
:10045000A6E1B3E489839A83AB83BC8320E030E0D8
:100460004AE755E469817A818B819C810E94180951
:10047000DC01CB018D839E83AF83B88720E030E021
:1004800040E85FE36D817E818F8198850E949208AC
:1004900088232CF481E090E09A8789873FC020E090
:1004A0003FEF4FE757E46D817E818F8198850E94F1
:1004B000130918164CF520E030E040E251E4698160
:1004C0007A818B819C810E941809DC01CB01BC01DF
:1004D000CD010E949708DC01CB019A8789870FC064
:1004E00080E991E09C878B878B859C850197F1F74C
:1004F0009C878B8789859A8501979A8789878985C3
:100500009A85892B69F714C06D817E818F819885CA
:100510000E949708DC01CB019A87898789859A8593
:100520009E878D878D859E850197F1F79E878D87A4
:1005300080910001863028F08091000181508093E5
:100540000001809100010E94390489E290E0FC01E1
:100550008081882F90E088709927892B09F476CFC5
:1005600000002E960FB6F894DEBF0FBECDBFDF9110
:10057000CF91FF91EF91BF91AF919F918F917F911B
:100580006F915F914F913F912F910F9000925F007B
:100590000F901F9018951F920F9200905F000F927E
:1005A00011242F933F938F939F93AF93BF93EF9318
:1005B000FF93CF93DF93CDB7DEB78BE290E02BE2D2
:1005C00030E0F901308121E02327FC012083809174
:1005D0000F0190911001A0911101B09112010196AB
:1005E000A11DB11D80930F0190931001A0931101E3
:1005F000B09312010000DF91CF91FF91EF91BF9175
:10060000AF919F918F913F912F910F9000925F003A
:100610000F901F9018951F920F9200905F000F92FD
:1006200011242F933F934F935F936F937F938F93F7
:100630009F93AF93BF93EF93FF93CF93DF93CDB788
:10064000DEB789E290E0FC018081882F90E0827023
:100650009927892B81F520910F013091100140914C
:100660001101509112018091130190911401A091F8
:100670001501B0911601281B390B4A0B5B0B80E664
:100680009AEEAFEFBFEFBC01CD010E94B909DA01CC
:10069000C90180930E0180910F0190911001A091EA
:1006A0001101B09112018093130190931401A09352
:1006B0001501B09316010000DF91CF91FF91EF91EA
:1006C000BF91AF919F918F917F916F915F914F916A
:1006D0003F912F910F9000925F000F901F901895FF
:1006E000CF93DF93CDB7DEB78AE290E021E0FC0143
:1006F00020838BE290E02EE1FC01208384E290E0F5
:100700002FEFFC01208389E690E02AE0FC012083A2
:100710008DE390E023E0FC01208384E490E022E07C
:10072000FC01208385E490E023E0FC01208387E442
:1007300090E029EFFC0120838EE690E022E0FC01AE
:1007400020837894809100010E94390480E091E038
:100750000E94AB03F7CFCF93DF9300D000D000D03F
:10076000CDB7DEB79E838D831A82198235C085E2AC
:1007700090E025E230E0F9012081422F21E030E0D5
:10078000098002C0220F331F0A94E2F7242BFC01D8
:1007900020838D819E81FC018081882F90E082954D
:1007A0009295907F9827807F98279C01990F440B02
:1007B000550B80E69AEEA0E0B0E0BC01CD010E94AE
:1007C000DB09DA01C901BC01CD010E9471048981F4
:1007D0009A8101969A83898389819A8108973CF24C
:1007E00087E090E09C838B8336C085E290E025E231
:1007F00030E0F9012081422F21E030E00B8002C07F
:10080000220F331F0A94E2F720952423FC01208352
:100810008D819E81FC018081882F90E08295929548
:10082000907F9827807F98279C01990F440B550B48
:1008300080E69AEEA0E0B0E0BC01CD010E94DB09A9
:10084000DA01C901BC01CD010E9471048B819C8138
:1008500001979C838B838B819C81992334F60000C4
:1008600026960FB6F894DEBF0FBECDBFDF91CF91B5
:100870000895CF93DF931F92CDB7DEB789830E948F
:1008800065050E94E50660E080E00E945D088981C0
:10089000882F90E063E00E943B086EE083E20E94B4
:1008A0005D0861E081E091E00E9418086BE180E062
:1008B0000E945D0880910E01882F90E063E00E9405
:1008C0003B0869E283E30E945D0861E08AE091E011
:1008D0000E9418080E94700800000F90DF91CF91CD
:1008E0000895CF93DF93CDB7DEB72E970FB6F89468
:1008F000DEBF0FBECDBF6B877C878D879E878FE065
:1009000091E09A8789878B859C85AD85BE85898393
:100910009A83AB83BC8380910F0190911001A091C9
:100920001101B09112018D839E83AF83B88726C0D9
:1009300089859A85FC0120813181428153818D8195
:100940009E81AF81B88582179307A407B507B0F4DD
:100950008D819E81AF81B8850196A11DB11D8D83CA
:100960009E83AF83B88789819A81AB81BC810197CF
:10097000A109B10989839A83AB83BC8389819A8158
:10098000AB81BC81892B8A2B8B2B91F600002E9694
:100990000FB6F894DEBF0FBECDBFDF91CF910895A3
:1009A0001F93CF93DF9300D0CDB7DEB789836A83DF
:1009B00088E290E028E230E0F90120812D7FFC01FF
:1009C00020838A81882351F088E290E028E230E099
:1009D000F90120812860FC01208309C088E290E0B1
:1009E00028E230E0F9012081277FFC01208310E01C
:1009F0003CC08981882F90E0212F30E047E050E013
:100A0000BA01621B730B9B0102C0959587952A95CD
:100A1000E2F781709927892B51F088E290E028E273
:100A200030E0F90120812061FC01208309C088E2C7
:100A300090E028E230E0F90120812F7EFC01208344
:100A400088E290E028E230E0F90120812062FC0198
:100A5000208388E290E028E230E0F90120812F7DB8
:100A6000FC012083812F11E0180F183010F288E26A
:100A700090E028E230E0F90120812260FC0120832F
:100A800000000F900F90DF91CF911F910895CF93A9
:100A9000DF931F92CDB7DEB7898360E089810E9422
:100AA000D00400000F90DF91CF910895CF93DF9392
:100AB0001F92CDB7DEB7898361E089810E94D0049F
:100AC00000000F90DF91CF9108950F931F93CF9364
:100AD000DF93CDB7DEB76C970FB6F894DEBF0FBECD
:100AE000CDBF87E290E027E230E0F901208122606B
:100AF000FC01208387E290E027E230E0F9012081C9
:100B00002460FC01208387E290E027E230E0F901D5
:100B100020812860FC01208387E290E027E230E01A
:100B2000F90120812061FC01208387E290E027E227
:100B300030E0F90120812062FC01208388E290E00E
:100B400028E230E0F90120812460FC01208388E262
:100B500090E028E230E0F90120812260FC0120834E
:100B600080E090E0A0E2B1E489839A83AB83BC8308
:100B700020E030E04AE753E469817A818B819C81EF
:100B80000E941809DC01CB018B8B9C8BAD8BBE8B3B
:100B900020E030E040E85FE36B897C898D899E89A5
:100BA0000E94920888232CF481E090E0988F8F8B2C
:100BB0003FC020E03FEF4FE757E46B897C898D8988
:100BC0009E890E94130918164CF520E030E040E29F
:100BD00051E469817A818B819C810E941809DC0132
:100BE000CB01BC01CD010E949708DC01CB01988F9D
:100BF0008F8B0FC089E190E09A8F898F898D9A8DB4
:100C00000197F1F79A8F898F8F89988D0197988F27
:100C10008F8B8F89988D892B69F714C06B897C899C
:100C20008D899E890E949708DC01CB01988F8F8B5C
:100C30008F89988D9C8F8B8F8B8D9C8D0197F1F771
:100C40009C8F8B8F88E290E028E230E0F9012081D0
:100C50002B7FFC01208380E090E0ACE8B2E48D8340
:100C60009E83AF83B88720E030E04AE753E46D818C
:100C70007E818F8198850E941809DC01CB018987CC
:100C80009A87AB87BC8720E030E040E85FE3698566
:100C90007A858B859C850E94920888232CF481E0BC
:100CA00090E09E878D873FC020E03FEF4FE757E4FD
:100CB00069857A858B859C850E94130918164CF5E9
:100CC00020E030E040E251E46D817E818F819885A3
:100CD0000E941809DC01CB01BC01CD010E949708DC
:100CE000DC01CB019E878D870FC089E190E0988B56
:100CF0008F878F8598890197F1F7988B8F878D85DE
:100D00009E8501979E878D878D859E85892B69F7A6
:100D100014C069857A858B859C850E949708DC01C3
:100D2000CB019E878D878D859E859A8B898B89893E
:100D30009A890197F1F79A8B898B88E290E028E2F3
:100D400030E0F90120812460FC01208388E290E0FA
:100D500028E230E0F90120812D7FFC01208381E22F
:100D60000E94470583E10E94470586E00E944705EF
:100D700082EC0E94470580E20E94470589E00E94BC
:100D8000470580E80E94470580E40E94470500E08F
:100D900010E005C080E00E9456050F5F1F4F083F1E
:100DA000F1E01F07B8F388E00E9447058CE00E943D
:100DB000470500006C960FB6F894DEBF0FBECDBF9E
:100DC000DF91CF911F910F9108950F931F93CF93B0
:100DD000DF93CDB7DEB780E80E94470580E40E942C
:100DE000470510920F031092100300E010E007C0B7
:100DF000C801895E9E4FFC0110820F5F1F4F083FA4
:100E0000F1E01F07A8F30000DF91CF911F910F9130
:100E10000895CF93DF9300D000D01F92CDB7DEB7F7
:100E20008B836C834D838C81869586958695882FE0
:100E300090E044E5489F9001499F300D11248B813B
:100E4000882F90E0820F931F895E9E4F9A8389833B
:100E50008D818823C9F089819A81FC018081482F86
:100E60008C81882F90E09C012770332781E090E0EF
:100E700002C0880F991F2A95E2F7842B282F8981B9
:100E80009A81FC01208319C089819A81FC018081AB
:100E9000482F8C81882F90E09C012770332781E0B8
:100EA00090E002C0880F991F2A95E2F7809584236D
:100EB000282F89819A81FC01208300000F900F90D8
:100EC0000F900F900F90DF91CF9108950F931F9384
:100ED000CF93DF9300D000D01F92CDB7DEB78C83C5
:100EE0006D8310E065C000E04EC08C81882F90E0DB
:100EF0009C01205231099D81812F692F0E94AD09EB
:100F0000482F50E0C901880F991F880F991F820F41
:100F1000931F840F951F88599F4F9A8389838981D6
:100F20009A81FC0184918B838B81282F30E09D81F5
:100F3000802F692F0E94AD09882F90E0A90102C07F
:100F4000559547958A95E2F7CA0181709927892BB3
:100F500061F080911003982F900F80910F03810F03
:100F600041E0692F0E9409070BC080911003982F60
:100F7000900F80910F03810F40E0692F0E940907B5
:100F8000802F01E0080F402F50E08D81282F30E0A6
:100F9000C901880F991F880F991F880F991F821BFD
:100FA000930B481759070CF4A0CF812F11E0180FAD
:100FB000412F50E08D81282F30E0C901880F991F03
:100FC000880F991F820F931F481759070CF48BCF76
:100FD00020910F039D81892F880F880F890F820F21
:100FE0008F5F80930F0380910F03843570F0109210
:100FF0000F03209110039D81892F880F880F880F80
:10100000891B820F8F5F80931003809110038033C0
:1010100020F010920F031092100300000F900F9019
:101020000F900F900F90DF91CF911F910F91089526
:10103000CF93DF9300D01F92CDB7DEB79A83898319
:101040006B830CC089819A819C012F5F3F4F3A834B
:101050002983FC0180816B810E94660789819A81C6
:10106000FC018081882371F700000F900F900F9092
:10107000DF91CF910895CF93DF9300D000D0CDB70B
:10108000DEB79B838A836C838981882F90E09C01E3
:101090008A819B814AE050E0B9010E94FA09898166
:1010A000882F90E06C810E94180800000F900F902C
:1010B0000F900F90DF91CF910895CF93DF9300D0E1
:1010C000CDB7DEB789836A83898180930F038A81D4
:1010D0008093100300000F900F90DF91CF9108953F
:1010E0000F931F93CF93DF93CDB7DEB780E80E94B5
:1010F000470580E40E94470500E010E009C0C801F0
:10110000895E9E4FFC0180810E9456050F5F1F4F34
:10111000083FF1E01F0798F30000DF91CF911F9186
:101120000F9108950E94C60808F481E008950E9476
:10113000F20888F09F5798F0B92F9927B751B0F06F
:10114000E1F0660F771F881F991F1AF0BA95C9F74B
:1011500014C0B13091F00E940C09B1E008950C94D4
:101160000C09672F782F8827B85F39F0B93FCCF387
:10117000869577956795B395D9F73EF490958095C8
:10118000709561957F4F8F4F9F4F0895990F00087D
:10119000550FAA0BE0E8FEEF16161706E807F90749
:1011A000C0F012161306E407F50798F0621B730BE4
:1011B000840B950B39F40A2661F0232B242B252B65
:1011C00021F408950A2609F4A140A6958FEF811D08
:1011D000811D089557FD9058440F551F59F05F3FEA
:1011E00071F04795880F97FB991F61F09F3F79F049
:1011F00087950895121613061406551FF2CF4695CB
:10120000F1DF08C0161617061806991FF1CF86954C
:101210007105610508940895E894BB276627772730
:10122000CB0197F908950E94C60808F48FEF08953E
:101230000E942B090C949C090E948E0938F00E9490
:10124000950920F0952311F00C9485090C948B09D5
:1012500011240C940D090E94EA0870F3959FC1F3C4
:10126000950F50E0551F629FF001729FBB27F00D54
:10127000B11D639FAA27F00DB11DAA1F649F6627A9
:10128000B00DA11D661F829F2227B00DA11D621FF8
:10129000739FB00DA11D621F839FA00D611D221FB2
:1012A000749F3327A00D611D231F849F600D211D96
:1012B000822F762F6A2F11249F5750409AF0F1F019
:1012C00088234AF0EE0FFF1FBB1F661F771F881F82
:1012D00091505040A9F79E3F510580F00C9485092C
:1012E0000C940D095F3FE4F3983ED4F3869577950F
:1012F0006795B795F795E7959F5FC1F7FE2B880F28
:10130000911D9695879597F9089597F99F6780E8BD
:1013100070E060E008959FEF80EC089500240A9447
:101320001616170618060906089500240A941216C0
:101330001306140605060895092E0394000C11F4F3
:10134000882352F0BB0F40F4BF2B11F460FF04C0A0
:101350006F5F7F4F8F4F9F4F0895991B79E004C0B7
:10136000991F961708F0961B881F7A95C9F78095E4
:101370000895A1E21A2EAA1BBB1BFD010DC0AA1FD6
:10138000BB1FEE1FFF1FA217B307E407F50720F0EE
:10139000A21BB30BE40BF50B661F771F881F991F69
:1013A0001A9469F760957095809590959B01AC01B2
:1013B000BD01CF010895052E97FB1EF400940E94F5
:1013C000F20957FD07D00E94B90907FC03D04EF47B
:1013D0000C94F20950954095309521953F4F4F4F11
:1013E0005F4F089590958095709561957F4F8F4FD1
:1013F0009F4F08954532510520F4423010F00C946F
:10140000050AFB011082CB010895BB274A3031F455
:10141000992322F4BDE2909581959F4F0C94110A77
:10142000BB27FB015527AA27880F991FAA1FA417BE
:1014300010F0A41B83955051B9F7A05DAA3308F0B2
:10144000A95DA193009779F7B111B1931192CB01E6
:101450000C942A0ADC01FC01672F71917723E1F7D4
:10146000329704C07C916D9370836291AE17BF0771
:08147000C8F30895F894FFCFC2
:0E14780005726573702F6D696E0062706D00F5
:00000001FF
