:100000000C9424010C9443010C9405020C944101BE
:100010000C9441010C943F030C9441010C94410158
:100020000C9441010C9441010C9441010C94410148
:100030000C9441010C9441010C94C7020C944101B1
:100040000C9441010C9441010C9441010C94410128
:100050000C9441010C9441010C9441010C94410118
:100060000C9441010C944101000000000000005F6D
:1000700000000007000700147F147F14242A7F2A41
:10008000122313086462364955225000050300000C
:10009000001C2241000041221C0014083E081408E4
:1000A000083E0808005030000008080808080060F2
:1000B00060000020100804023E5149453E00427F86
:1000C000400042615149462141454B311814127F8D
:1000D0001027454545393C4A494930017109050316
:1000E0003649494936064949291E0036360000007E
:1000F0005636000008142241001414141414004150
:100100002214080201510906324979413E7E11113B
:10011000117E7F494949363E414141227F4141227A
:100120001C7F494949417F090909013E4149497AF2
:100130007F0808087F00417F41002040413F017F48
:10014000081422417F404040407F020C027F7F0420
:1001500008107F3E4141413E7F090909063E415159
:10016000215E7F09192946464949493101017F012C
:10017000013F4040403F1F2040201F3F4038403F4C
:100180006314081463070870080761514945430068
:100190007F41410002040810200041417F00040219
:1001A0000102044040404040000102040020545439
:1001B00054787F48444438384444442038444448C0
:1001C0007F3854545418087E0901020C5252523E92
:1001D0007F0804047800447D40002040443D007FB7
:1001E0001028440000417F40007C041804787C08FB
:1001F00004047838444444387C1414140808141453
:10020000187C7C080404084854545420043F44409B
:10021000203C4040207C1C2040201C3C4030403C86
:1002200044281028440C5050503C4464544C440022
:100230000836410000007F00000041360800100829
:10024000081008000000000011241FBECFEFD8E006
:10025000DEBFCDBF11E0A0E0B1E0E2E1FAE102C013
:1002600005900D92AA31B107D9F723E0AAE1B1E0D8
:1002700001C01D92AD31B207E1F70E94CF030C948B
:10028000070D0C9400001F920F9200905F000F92D8
:1002900011242F933F934F935F936F937F938F938B
:1002A0009F93AF93BF93EF93FF93CF93DF93CDB71C
:1002B000DEB72E97DEBFCDBF809100018E3108F0F2
:1002C00089C07DC080E090E0A6E1B3E489839A8391
:1002D000AB83BC8320E030E04AE755E469817A8152
:1002E0008B819C810E942C0CDC01CB018D839E8331
:1002F000AF83B88720E030E040E85FE36D817E8126
:100300008F8198850E94CF0A88232CF481E090E0A9
:100310009A8789873FC020E03FEF4FE757E46D8120
:100320007E818F8198850E94270C18164CF520E05D
:1003300030E040E251E469817A818B819C810E94A6
:100340002C0CDC01CB01BC01CD010E94460BDC0171
:10035000CB019A8789870FC080E991E09C878B87C2
:100360008B859C850197F1F79C878B8789859A857A
:1003700001979A87898789859A85892B69F714C09F
:100380006D817E818F8198850E94460BDC01CB01B7
:100390009A87898789859A859E878D878D859E8591
:1003A0000197F1F79E878D87809100018E3128F4A7
:1003B000809100018F5F809300010E941C0589E2FB
:1003C00090E0FC018081882F90E084709927892B30
:1003D00009F478CF00002E960FB6F894DEBF0FBE5A
:1003E000CDBFDF91CF91FF91EF91BF91AF919F91E1
:1003F0008F917F916F915F914F913F912F910F90CE
:1004000000925F000F901F9018951F920F9200901E
:100410005F000F9211242F933F934F935F936F933D
:100420007F938F939F93AF93BF93EF93FF93CF935C
:10043000DF93CDB7DEB72E97DEBFCDBF8091000131
:10044000863008F489C07DC080E090E0A6E1B3E486
:1004500089839A83AB83BC8320E030E04AE755E48C
:1004600069817A818B819C810E942C0CDC01CB01FB
:100470008D839E83AF83B88720E030E040E85FE360
:100480006D817E818F8198850E94CF0A88232CF40C
:1004900081E090E09A8789873FC020E03FEF4FE7F7
:1004A00057E46D817E818F8198850E94270C1816F4
:1004B0004CF520E030E040E251E469817A818B81A3
:1004C0009C810E942C0CDC01CB01BC01CD010E945F
:1004D000460BDC01CB019A8789870FC080E991E048
:1004E0009C878B878B859C850197F1F79C878B87F1
:1004F00089859A8501979A87898789859A85892B25
:1005000069F714C06D817E818F8198850E94460BAA
:10051000DC01CB019A87898789859A859E878D879B
:100520008D859E850197F1F79E878D8780910001CB
:10053000863028F0809100018150809300010E9454
:100540001C0589E290E0FC018081882F90E0887092
:100550009927892B09F478CF00002E960FB6F894CE
:10056000DEBF0FBECDBFDF91CF91FF91EF91BF9165
:10057000AF919F918F917F916F915F914F913F913B
:100580002F910F9000925F000F901F9018951F926F
:100590000F9200905F000F9211242F933F934F937F
:1005A0005F936F937F938F939F93AF93BF93EF93DB
:1005B000FF93CF93DF93CDB7DEB78BE290E02BE2D2
:1005C00030E0F901308121E02327FC012083809174
:1005D0001A0190911B01A0911C01B0911D0101967F
:1005E000A11DB11D80931A0190931B01A0931C01C2
:1005F000B0931D0180911A0190911B01A0911C01E3
:10060000B0911D0126E930E040E050E0BC01CD0191
:100610000E94A50CDC01CB01892B8A2B8B2B11F4BA
:100620000E94EA0580911A0190911B01A0911C0182
:10063000B0911D0128EC30E040E050E0BC01CD015C
:100640000E94A50CDC01CB01892B8A2B8B2B11F48A
:100650000E941C050000DF91CF91FF91EF91BF91A7
:10066000AF919F918F917F916F915F914F913F914A
:100670002F910F9000925F000F901F9018951F927E
:100680000F9200905F000F921124EF92FF920F9350
:100690001F932F933F934F935F936F937F938F930A
:1006A0009F93AF93BF93EF93FF93CF93DF93CDB718
:1006B000DEB720911A0130911B0140911C0150912D
:1006C0001D0180911F0190912001A0912101B09105
:1006D000220179018A01E81AF90A0A0B1B0BD801D9
:1006E000C701BC01CD010E94750BDC01CB019C014F
:1006F000AD01BC01CD010E94630ADC01CB019C016C
:10070000AD0160E070E68AE697E40E94D40ADC015D
:10071000CB01BC01CD010E94460BDC01CB018093D3
:100720001E0120911F013091200140912101509123
:10073000220180911A0190911B01A0911C01B0919E
:100740001D01281739074A075B0780F480911A01B9
:1007500090911B01A0911C01B0911D0180931F017C
:1007600090932001A0932101B09322010000DF911A
:10077000CF91FF91EF91BF91AF919F918F917F9119
:100780006F915F914F913F912F911F910F91FF902A
:10079000EF900F9000925F000F901F901895CF93ED
:1007A000DF93CDB7DEB78AE290E021E8FC01208339
:1007B0008BE290E02CE0FC01208384E290E02FEFBC
:1007C000FC01208387E290E02CE7FC01208388E293
:1007D00090E0FC01108289E690E02AE0FC01208391
:1007E0008DE390E023E0FC01208388E690E024E0A4
:1007F000FC0120838DE690E022E0FC01208384E46C
:1008000090E022E0FC01208385E490E023E0FC01FD
:10081000208387E490E029EFFC0120838EE690E0BE
:1008200022E0FC0120838AE790E027EEFC01208390
:100830008BE790E0FC0110828CE790E020E4FC0163
:1008400020838EE790E02EE3FC01208388E790E090
:10085000FC0180819181CC01A0E0B0E0BC01CD0120
:100860000E94750BDC01CB0120E030E040EA50E44F
:10087000BC01CD010E942C0CDC01CB0120E030EC4E
:100880004FE754E4BC01CD010E94D40ADC01CB0146
:1008900020E030E040E85FE3BC01CD010E94630A44
:1008A000DC01CB0120E030E040E251E4BC01CD01AD
:1008B0000E942C0CDC01CB01BC01CD010E94460B37
:1008C000DC01CB018093020178940E94350780E01F
:1008D00091E00E946C04F9CFCF93DF9300D000D059
:1008E00000D0CDB7DEB79E838D831A82198245C0B2
:1008F00085E290E025E230E0F9012081422F21E0FD
:1009000030E0098002C0220F331F0A94E2F7242B43
:10091000FC0120838D819E81FC018081882F90E0E5
:10092000092E000CAA0BBB0BBC01CD010E94770B5A
:10093000DC01CB0120E030E040E851E4BC01CD0116
:100940000E942C0CDC01CB019C01AD0160E070E643
:100950008AE697E40E94D40ADC01CB01BC01CD01F8
:100960000E94460BDC01CB01BC01CD010E94780541
:1009700089819A8101969A83898389819A810897CE
:100980000CF4B6CF87E090E09C838B8346C085E271
:1009900090E025E230E0F9012081422F21E030E0B3
:1009A0000B8002C0220F331F0A94E2F72095242304
:1009B000FC0120838D819E81FC018081882F90E045
:1009C000092E000CAA0BBB0BBC01CD010E94770BBA
:1009D000DC01CB0120E030E040E851E4BC01CD0176
:1009E0000E942C0CDC01CB019C01AD0160E070E6A3
:1009F0008AE697E40E94D40ADC01CB01BC01CD0158
:100A00000E94460BDC01CB01BC01CD010E947805A0
:100A10008B819C8101979C838B838B819C81992303
:100A20000CF0B5CF000026960FB6F894DEBF0FBECF
:100A3000CDBFDF91CF910895CF93DF93CDB7DEB7D0
:100A40000E94B50860E080E00E942D0A80910001BC
:100A5000882F90E061E00E940B0A61E083E20E942F
:100A60002D0A61E083E091E00E94E8096AE080E0FD
:100A70000E942D0A80911E01882F90E061E00E9463
:100A80000B0A6AE083E20E942D0A61E08CE091E0AB
:100A90000E94E80964E180E00E942D0A8091010132
:100AA000882F90E061E00E940B0A64E183E20E94DB
:100AB0002D0A61E080E191E00E94E8096EE180E0AA
:100AC0000E942D0A80910201882F90E061E00E942F
:100AD0000B0A6EE183E20E942D0A61E087E191E05A
:100AE0000E94E8090E94400A0000DF91CF9108951A
:100AF000CF93DF93CDB7DEB72E970FB6F894DEBF56
:100B00000FBECDBF6B877C878D879E878AE191E082
:100B10009A8789878B859C85AD85BE8589839A83D5
:100B2000AB83BC8380911A0190911B01A0911C01A1
:100B3000B0911D018D839E83AF83B88726C08985C0
:100B40009A85FC0120813181428153818D819E8172
:100B5000AF81B88582179307A407B507B0F48D81DC
:100B60009E81AF81B8850196A11DB11D8D839E83A5
:100B7000AF83B88789819A81AB81BC810197A10934
:100B8000B10989839A83AB83BC8389819A81AB81C4
:100B9000BC81892B8A2B8B2B91F689859A85FC0148
:100BA00080819181A281B3818F3F9F4FAF4FBF4F13
:100BB00039F489859A85FC01108211821282138290
:100BC00000002E960FB6F894DEBF0FBECDBFDF91AA
:100BD000CF910895CF93DF93CDB7DEB78CE790E048
:100BE000FC0180818034A9F58CE790E021E4FC01D0
:100BF00020838EE790E02DE3FC01208388E790E0DE
:100C0000FC0180819181CC01A0E0B0E0BC01CD016C
:100C10000E94750BDC01CB0120E030E04AEF52E48A
:100C2000BC01CD010E942C0CDC01CB0120E030EC9A
:100C30004FE754E4BC01CD010E94D40ADC01CB0192
:100C4000BC01CD010E94460BDC01CB018093010168
:100C500048C08CE790E020E4FC0120838EE790E020
:100C60002EE3FC01208388E790E0FC0180819181E4
:100C7000CC01A0E0B0E0BC01CD010E94750BDC010D
:100C8000CB0120E030E040EA50E4BC01CD010E94FD
:100C90002C0CDC01CB0120E030EC4FE754E4BC012C
:100CA000CD010E94D40ADC01CB0120E030E040E815
:100CB0005FE3BC01CD010E94630ADC01CB0120E0AF
:100CC00030E040E251E4BC01CD010E942C0CDC017B
:100CD000CB01BC01CD010E94460BDC01CB0180930E
:100CE000020180910201833240F0809102018A3238
:100CF00020F4809101018C3350F48BE290E02BE2E0
:100D000030E0F90120812068FC01208315C080912A
:100D10000201833288F0809102018A3268F4809166
:100D200001018C3348F08BE290E02BE230E0F901D6
:100D300020812F77FC0120830000DF91CF9108955F
:100D40001F93CF93DF9300D0CDB7DEB789836A833B
:100D500088E290E028E230E0F90120812F7BFC015D
:100D600020838A81882351F088E290E028E230E0F5
:100D7000F90120812860FC01208309C088E290E00D
:100D800028E230E0F9012081277FFC01208310E078
:100D90003CC08981882F90E0212F30E047E050E06F
:100DA000BA01621B730B9B0102C0959587952A952A
:100DB000E2F781709927892B51F088E290E028E2D0
:100DC00030E0F90120812061FC01208309C088E224
:100DD00090E028E230E0F90120812F7EFC012083A1
:100DE00088E290E028E230E0F90120812062FC01F5
:100DF000208388E290E028E230E0F90120812F7D15
:100E0000FC012083812F11E0180F183010F288E2C6
:100E100090E028E230E0F90120812064FC01208389
:100E200000000F900F90DF91CF911F910895CF9305
:100E3000DF931F92CDB7DEB7898360E089810E947E
:100E4000A00600000F90DF91CF910895CF93DF931C
:100E50001F92CDB7DEB7898361E089810E94A00629
:100E600000000F90DF91CF9108950F931F93CF93C0
:100E7000DF93CDB7DEB76C970FB6F894DEBF0FBE29
:100E8000CDBF87E290E027E230E0F90120812064C5
:100E9000FC01208387E290E027E230E0F901208125
:100EA0002460FC01208387E290E027E230E0F90132
:100EB00020812860FC01208387E290E027E230E077
:100EC000F90120812061FC01208387E290E027E284
:100ED00030E0F90120812062FC01208388E290E06B
:100EE00028E230E0F90120812460FC01208388E2BF
:100EF00090E028E230E0F90120812064FC012083A9
:100F000080E090E0A0E2B1E489839A83AB83BC8364
:100F100020E030E04AE753E469817A818B819C814B
:100F20000E942C0CDC01CB018B8B9C8BAD8BBE8B80
:100F300020E030E040E85FE36B897C898D899E8901
:100F40000E94CF0A88232CF481E090E0988F8F8B49
:100F50003FC020E03FEF4FE757E46B897C898D89E4
:100F60009E890E94270C18164CF520E030E040E2E4
:100F700051E469817A818B819C810E942C0CDC0177
:100F8000CB01BC01CD010E94460BDC01CB01988F47
:100F90008F8B0FC089E190E09A8F898F898D9A8D10
:100FA0000197F1F79A8F898F8F89988D0197988F84
:100FB0008F8B8F89988D892B69F714C06B897C89F9
:100FC0008D899E890E94460BDC01CB01988F8F8B07
:100FD0008F89988D9C8F8B8F8B8D9C8D0197F1F7CE
:100FE0009C8F8B8F88E290E028E230E0F90120812D
:100FF0002B7FFC01208380E090E0ACE8B2E48D839D
:101000009E83AF83B88720E030E04AE753E46D81E8
:101010007E818F8198850E942C0CDC01CB01898711
:101020009A87AB87BC8720E030E040E85FE36985C2
:101030007A858B859C850E94CF0A88232CF481E0D9
:1010400090E09E878D873FC020E03FEF4FE757E459
:1010500069857A858B859C850E94270C18164CF52E
:1010600020E030E040E251E46D817E818F819885FF
:101070000E942C0CDC01CB01BC01CD010E94460B6F
:10108000DC01CB019E878D870FC089E190E0988BB2
:101090008F878F8598890197F1F7988B8F878D853A
:1010A0009E8501979E878D878D859E85892B69F703
:1010B00014C069857A858B859C850E94460BDC016E
:1010C000CB019E878D878D859E859A8B898B89899B
:1010D0009A890197F1F79A8B898B88E290E028E250
:1010E00030E0F90120812460FC01208388E290E057
:1010F00028E230E0F90120812F7BFC01208381E28E
:101100000E94170783E10E94170786E00E941707D5
:1011100082EC0E94170780E20E94170789E00E9474
:10112000170780E80E94170780E40E94170700E075
:1011300010E005C080E00E9426070F5F1F4F083FA8
:10114000F1E01F07B8F388E00E9417078CE00E94C7
:10115000170700006C960FB6F894DEBF0FBECDBF28
:10116000DF91CF911F910F9108950F931F93CF930C
:10117000DF93CDB7DEB780E80E94170780E40E94B6
:10118000170710921B0310921C0300E010E007C029
:10119000C8018D5D9E4FFC0110820F5F1F4F083FFD
:1011A000F1E01F07A8F30000DF91CF911F910F918D
:1011B0000895CF93DF9300D000D01F92CDB7DEB754
:1011C0008B836C834D838C81869586958695882F3D
:1011D00090E044E5489F9001499F300D11248B8198
:1011E000882F90E0820F931F8D5D9E4F9A83898395
:1011F0008D818823C9F089819A81FC018081482FE3
:101200008C81882F90E09C012770332781E090E04B
:1012100002C0880F991F2A95E2F7842B282F898115
:101220009A81FC01208319C089819A81FC01808107
:10123000482F8C81882F90E09C012770332781E014
:1012400090E002C0880F991F2A95E2F780958423C9
:10125000282F89819A81FC01208300000F900F9034
:101260000F900F900F90DF91CF9108950F931F93E0
:10127000CF93DF9300D000D01F92CDB7DEB78C8321
:101280006D8310E065C000E04EC08C81882F90E037
:101290009C01205231099D81812F692F0E94990C58
:1012A000482F50E0C901880F991F880F991F820F9E
:1012B000931F840F951F88599F4F9A838983898133
:1012C0009A81FC0184918B838B81282F30E09D8152
:1012D000802F692F0E94990C882F90E0A90102C0ED
:1012E000559547958A95E2F7CA0181709927892B10
:1012F00061F080911C03982F900F80911B03810F48
:1013000041E0692F0E94D9080BC080911C03982FDF
:10131000900F80911B03810F40E0692F0E94D90834
:10132000802F01E0080F402F50E08D81282F30E002
:10133000C901880F991F880F991F880F991F821B59
:10134000930B481759070CF4A0CF812F11E0180F09
:10135000412F50E08D81282F30E0C901880F991F5F
:10136000880F991F820F931F481759070CF48BCFD2
:1013700020911B039D81892F880F880F890F820F71
:101380008F5F80931B0380911B03843570F0109254
:101390001B0320911C039D81892F880F880F880FC4
:1013A000891B820F8F5F80931C0380911C03803305
:1013B00020F010921B0310921C0300000F900F905E
:1013C0000F900F900F90DF91CF911F910F91089583
:1013D000CF93DF9300D01F92CDB7DEB79A83898376
:1013E0006B830CC089819A819C012F5F3F4F3A83A8
:1013F0002983FC0180816B810E94360989819A8151
:10140000FC018081882371F700000F900F900F90EE
:10141000DF91CF910895CF93DF9300D000D0CDB767
:10142000DEB79B838A836C838981882F90E09C013F
:101430008A819B814AE050E0B9010E94C70C8981F2
:10144000882F90E06C810E94E80900000F900F90B7
:101450000F900F90DF91CF910895CF93DF9300D03D
:10146000CDB7DEB789836A83898180931B038A8124
:1014700080931C0300000F900F90DF91CF9108958F
:101480000F931F93CF93DF93CDB7DEB780E80E9411
:10149000170780E40E94170700E010E009C0C801A8
:1014A0008D5D9E4FFC0180810E9426070F5F1F4FBC
:1014B000083FF1E01F0798F30000DF91CF911F91E3
:1014C0000F9108955058BB27AA270E947A0A0C94BE
:1014D000ED0B0E94DF0B38F00E94E60B20F039F490
:1014E0009F3F19F426F40C94DC0B0EF4E095E7FB17
:1014F0000C94D60BE92F0E94FE0B58F3BA17620723
:1015000073078407950720F079F4A6F50C94200C56
:101510000EF4E0950B2EBA2FA02D0B01B90190010E
:101520000C01CA01A0011124FF27591B99F0593F52
:1015300050F4503E68F11A16F040A22F232F342F9A
:101540004427585FF3CF469537952795A795F040E8
:101550005395C9F77EF41F16BA0B620B730B840BFD
:10156000BAF09150A1F0FF0FBB1F661F771F881FB5
:10157000C2F70EC0BA0F621F731F841F48F487950D
:1015800077956795B795F7959E3F08F0B0CF9395FF
:10159000880F08F09927EE0F9795879508950E9478
:1015A000B20B08F481E008950E94E80A0C94ED0B58
:1015B0000E94E60B58F00E94DF0B40F029F45F3FD9
:1015C00029F00C94D60B51110C94210C0C94DC0BCB
:1015D0000E94FE0B68F39923B1F3552391F3951BF9
:1015E000550BBB27AA2762177307840738F09F5F44
:1015F0005F4F220F331F441FAA1FA9F335D00E2EB1
:101600003AF0E0E832D091505040E695001CCAF71D
:101610002BD0FE2F29D0660F771F881FBB1F2617E0
:1016200037074807AB07B0E809F0BB0B802DBF01B7
:10163000FF2793585F4F3AF09E3F510578F00C9486
:10164000D60B0C94210C5F3FE4F3983ED4F38695BF
:1016500077956795B795F7959F5FC9F7880F911DA7
:101660009695879597F90895E1E0660F771F881F93
:10167000BB1F621773078407BA0720F0621B730B46
:10168000840BBA0BEE1F88F7E09508950E94060CB4
:1016900088F09F5798F0B92F9927B751B0F0E1F033
:1016A000660F771F881F991F1AF0BA95C9F714C0E3
:1016B000B13091F00E94200CB1E008950C94200C00
:1016C000672F782F8827B85F39F0B93FCCF386951C
:1016D00077956795B395D9F73EF490958095709579
:1016E00061957F4F8F4F9F4F0895E89409C097FBF6
:1016F0003EF490958095709561957F4F8F4F9F4FE9
:101700009923A9F0F92F96E9BB279395F69587952C
:1017100077956795B795F111F8CFFAF4BB0F11F4EF
:1017200060FF1BC06F5F7F4F8F4F9F4F16C0882396
:1017300011F096E911C0772321F09EE8872F762FCC
:1017400005C0662371F096E8862F70E060E02AF00D
:101750009A95660F771F881FDAF7880F96958795F9
:1017600097F90895990F0008550FAA0BE0E8FEEFCE
:1017700016161706E807F907C0F012161306E40755
:10178000F50798F0621B730B840B950B39F40A264E
:1017900061F0232B242B252B21F408950A2609F42C
:1017A000A140A6958FEF811D811D089597F99F6730
:1017B00080E870E060E008959FEF80EC08950024D9
:1017C0000A941616170618060906089500240A94A6
:1017D00012161306140605060895092E0394000C2C
:1017E00011F4882352F0BB0F40F4BF2B11F460FFBB
:1017F00004C06F5F7F4F8F4F9F4F089557FD9058E4
:10180000440F551F59F05F3F71F04795880F97FBC4
:10181000991F61F09F3F79F087950895121613067E
:101820001406551FF2CF4695F1DF08C016161706AD
:101830001806991FF1CF86957105610508940895E2
:10184000E894BB2766277727CB0197F908950E9474
:10185000B20B08F48FEF08950E943F0C0C94ED0B2F
:101860000E94DF0B38F00E94E60B20F0952311F068
:101870000C94D60B0C94DC0B11240C94210C0E94BC
:10188000FE0B70F3959FC1F3950F50E0551F629FBB
:10189000F001729FBB27F00DB11D639FAA27F00DC9
:1018A000B11DAA1F649F6627B00DA11D661F829FF0
:1018B0002227B00DA11D621F739FB00DA11D621FD5
:1018C000839FA00D611D221F749F3327A00D611DF2
:1018D000231F849F600D211D822F762F6A2F1124D4
:1018E0009F5750409AF0F1F088234AF0EE0FFF1F07
:1018F000BB1F661F771F881F91505040A9F79E3F5E
:10190000510580F00C94D60B0C94210C5F3FE4F34E
:10191000983ED4F3869577956795B795F795E795B3
:101920009F5FC1F7FE2B880F911D9695879597F9BC
:101930000895991B79E004C0991F961708F0961B2B
:10194000881F7A95C9F780950895A1E21A2EAA1BDF
:10195000BB1BFD010DC0AA1FBB1FEE1FFF1FA2175F
:10196000B307E407F50720F0A21BB30BE40BF50B5C
:10197000661F771F881F991F1A9469F760957095E5
:10198000809590959B01AC01BD01CF010895453232
:10199000510520F4423010F00C94D20CFB0110825F
:1019A000CB010895BB274A3031F4992322F4BDE2DC
:1019B000909581959F4F0C94DE0CBB27FB0155271A
:1019C000AA27880F991FAA1FA41710F0A41B83959C
:1019D0005051B9F7A05DAA3308F0A95DA193009713
:1019E00079F7B111B1931192CB010C94F70CDC0192
:1019F000FC01672F71917723E1F7329704C07C9146
:101A00006D9370836291AE17BF07C8F30895F89481
:021A1000FFCF06
:101A120005321E726573702F6D696E0062706D0003
:0A1A2200252053704F3200BA430034
:00000001FF
