S01E0000535052494E542033202D204170706C69636174696F6E2E73726563F2
S11300000C9443010C9462010C9426020C9460013C
S11300100C9460010C9460010C9460010C946001D8
S11300200C9460010C9460010C9460010C946001C8
S11300300C9460010C9460010C9460010C946001B8
S11300400C9460010C9460010C9460010C946001A8
S11300500C9460010C9460010C9460010C94600198
S11300600C9460010C94600139083F0845084B0862
S1130070510857085D08630869086F0875087B080C
S1130080810887088D08930899089F08A508AB087C
S1130090B108B708BD08C308C908CF08D508DB08EC
S11300A0E108E708ED08000000000000005F000020
S11300B00007000700147F147F14242A7F2A1223C8
S11300C01308646236495522500005030000001CE1
S11300D02241000041221C0014083E081408083E76
S11300E00808005030000008080808080060600094
S11300F00020100804023E5149453E00427F400062
S113010042615149462141454B311814127F102751
S1130110454545393C4A4949300171090503364989
S1130120494936064949291E00363600000056362C
S11301300000081422410014141414140041221461
S1130140080201510906324979413E7E1111117E9E
S11301507F494949363E414141227F4141221C7F2A
S1130160494949417F090909013E4149497A7F08C2
S113017008087F00417F41002040413F017F08146F
S113018022417F404040407F020C027F7F040810E0
S11301907F3E4141413E7F090909063E4151215EAE
S11301A07F09192946464949493101017F01013F27
S11301B04040403F1F2040201F3F4038403F6314D1
S11301C008146307087008076151494543007F41DB
S11301D0410002040810200041417F000402010292
S11301E0044040404040000102040020545454782C
S11301F07F484444383844444420384444487F3891
S113020054545418087E0901020C5252523E7F087D
S113021004047800447D40002040443D007F1028C1
S1130220440000417F40007C041804787C080404E6
S11302307838444444387C14141408081414187C82
S11302407C080404084854545420043F4440203C8F
S11302504040207C1C2040201C3C4030403C442832
S11302601028440C5050503C4464544C440008360C
S1130270410000007F00000041360800100808100B
S113028008000000000011241FBECFEFD8E0DEBF3D
S1130290CDBF11E0A0E0B1E0E6EBF5E102C00590CE
S11302A00D92A836B107D9F723E0A8E6B1E001C062
S11302B01D92A236B207E1F70E94EA020C94D90A11
S11302C00C9400001F920F9200905F000F92112473
S11302D02F933F934F935F936F937F938F939F934A
S11302E0AF93BF93EF93FF93CF93DF93CDB7DEB775
S11302F02E97DEBFCDBF809100018E3108F08BC0F8
S11303007FC080E090E0A8E4B3E489839A83AB8360
S1130310BC8320E030E04AE755E469817A818B812F
S11303209C810E94F109DC01CB018D839E83AF8304
S1130330B88720E030E040E85FE36D817E818F8103
S113034098850E942E0988232CF481E090E09A87F6
S113035089873FC020E03FEF4FE757E46D817E81FE
S11303608F8198850E94EC0918164CF520E030E046
S113037040E251E469817A818B819C810E94F10978
S1130380DC01CB01BC01CD010E943309DC01CB01AE
S11303909A8789870FC080E991E09C878B878B853A
S11303A09C850197F1F79C878B8789859A850197AE
S11303B09A87898789859A85892B69F714C06D8105
S11303C07E818F8198850E943309DC01CB019A8755
S11303D0898789859A859E878D878D859E850197D6
S11303E0F1F79E878D87809100018E3128F48091EA
S11303F000018F5F80930001809100010E948F04AF
S113040089E290E0FC018081882F90E08470992734
S1130410892B09F476CF00002E960FB6F894DEBF30
S11304200FBECDBFDF91CF91FF91EF91BF91AF91FF
S11304309F918F917F916F915F914F913F912F91F8
S11304400F9000925F000F901F9018951F920F92CB
S113045000905F000F9211242F933F934F935F936B
S11304606F937F938F939F93AF93BF93EF93FF9378
S1130470CF93DF93CDB7DEB72E97DEBFCDBF80918C
S11304800001863008F48BC07FC080E090E0A8E4CF
S1130490B3E489839A83AB83BC8320E030E04AE7EA
S11304A055E469817A818B819C810E94F109DC0188
S11304B0CB018D839E83AF83B88720E030E040E892
S11304C05FE36D817E818F8198850E942E09882348
S11304D02CF481E090E09A8789873FC020E03FEFC9
S11304E04FE757E46D817E818F8198850E94EC09E6
S11304F018164CF520E030E040E251E469817A813D
S11305008B819C810E94F109DC01CB01BC01CD01EE
S11305100E943309DC01CB019A8789870FC080E9E7
S113052091E09C878B878B859C850197F1F79C874D
S11305308B8789859A8501979A87898789859A8582
S1130540892B69F714C06D817E818F8198850E9403
S11305503309DC01CB019A87898789859A859E872F
S11305608D878D859E850197F1F79E878D87809174
S11305700001863028F080910001815080930001B1
S1130580809100010E948F0489E290E0FC01808147
S1130590882F90E088709927892B09F476CF000082
S11305A02E960FB6F894DEBF0FBECDBFDF91CF916C
S11305B0FF91EF91BF91AF919F918F917F916F9137
S11305C05F914F913F912F910F9000925F000F9098
S11305D01F901895CF93DF93CDB7DEB78AE290E0F2
S11305E0FC0180818AE290E0FC0110828BE290E0C1
S11305F02BE230E0F90120812F61FC01208384E2A9
S113060090E0FC01808184E290E02FEFFC012083E4
S113061089E690E02AE0FC0120838DE390E023E06A
S1130620FC0120837894809100010E948F0480E073
S113063091E00E941C03F7CFCF93DF93CDB7DEB7D1
S1130640A2970FB6F894DEBF0FBECDBF9AA389A3BD
S11306501A821982A5C085E290E025E230E0F90112
S11306602081422F21E030E0098002C0220F331F95
S11306700A94E2F7242BFC01208389A19AA1FC01AE
S11306808081882F90E082959295907F9827807F33
S113069098279C01990F440B550B80E69AEEA0E035
S11306A0B0E0BC01CD010E94920ADA01C901BC018B
S11306B0CD010E946409DC01CB0189879A87AB874D
S11306C0BC8720E030E04AE755E469857A858B856C
S11306D09C850E94F109DC01CB018D879E87AF8741
S11306E0B88B20E030E040E85FE36D857E858F8540
S11306F098890E942E0988232CF481E090E09A8B3B
S1130700898B3FC020E03FEF4FE757E46D857E853E
S11307108F8598890E94EC0918164CF520E030E08A
S113072040E251E469857A858B859C850E94F109B4
S1130730DC01CB01BC01CD010E943309DC01CB01FA
S11307409A8B898B0FC080E991E09C8B8B8B8B8972
S11307509C890197F1F79C8B8B8B89899A890197E6
S11307609A8B898B89899A89892B69F714C06D853D
S11307707E858F8598890E943309DC01CB019A8B91
S1130780898B89899A899E8B8D8B8D899E89019706
S1130790F1F79E8B8D8B89819A8101969A83898347
S11307A089819A8108970CF456CF87E090E09C8366
S11307B08B83A6C085E290E025E230E0F901208138
S11307C0422F21E030E00B8002C0220F331F0A9435
S11307D0E2F720952423FC01208389A19AA1FC013E
S11307E08081882F90E082959295907F9827807FD2
S11307F098279C01990F440B550B80E69AEEA0E0D4
S1130800B0E0BC01CD010E94920ADA01C901BC0129
S1130810CD010E946409DC01CB018D839E83AF83EB
S1130820B88720E030E04AE755E46D817E818F810E
S113083098850E94F109DC01CB018F8B988FA98FD9
S1130840BA8F20E030E040E85FE36F89788D898DCE
S11308509A8D0E942E0988232CF481E090E09C8FCD
S11308608B8F3FC020E03FEF4FE757E46F89788DCF
S1130870898D9A8D0E94EC0918164CF520E030E021
S113088040E251E46D817E818F8198850E94F10957
S1130890DC01CB01BC01CD010E943309DC01CB0199
S11308A09C8F8B8F0FC080E991E09E8F8D8F8D8DF3
S11308B09E8D0197F1F79E8F8D8F8B8D9C8D019767
S11308C09C8F8B8F8B8D9C8D892B69F714C06F89BE
S11308D0788D898D9A8D0E943309DC01CB019C8F20
S11308E08B8F8B8D9C8D98A38F8F8F8D98A1019763
S11308F0F1F798A38F8F8B819C8101979C838B83C5
S11309008B819C8199230CF055CF0000A2960FB6E1
S1130910F894DEBF0FBECDBFDF91CF910895CF9382
S1130920DF931F92CDB7DEB789830E9446050E94EC
S1130930C6066AE080E00E94F90864E089810E94AA
S11309401C0868E28EE10E94F90861E081E091E010
S11309500E94F9070E940C0900000F90DF91CF91CB
S113096008951F93CF93DF9300D0CDB7DEB789836B
S11309706A8388E290E028E230E0F90120812D7F4B
S1130980FC0120838A81882351F088E290E028E2E8
S113099030E0F90120812860FC01208309C088E24D
S11309A090E028E230E0F9012081277FFC012083D8
S11309B010E03CC08981882F90E0212F30E047E08F
S11309C050E0BA01621B730B9B0102C09595879599
S11309D02A95E2F781709927892B51F088E290E0FB
S11309E028E230E0F90120812061FC01208309C064
S11309F088E290E028E230E0F90120812F7EFC01BA
S1130A00208388E290E028E230E0F901208120622E
S1130A10FC01208388E290E028E230E0F9012081A3
S1130A202F7DFC012083812F11E0180F183010F264
S1130A3088E290E028E230E0F90120812260FC01A4
S1130A40208300000F900F90DF91CF911F910895A4
S1130A50CF93DF931F92CDB7DEB7898360E089819E
S1130A600E94B10400000F90DF91CF910895CF93BD
S1130A70DF931F92CDB7DEB7898361E089810E943D
S1130A80B10400000F90DF91CF9108950F931F934D
S1130A90CF93DF93CDB7DEB76C970FB6F894DEBF74
S1130AA00FBECDBF87E290E027E230E0F90120815C
S1130AB02260FC01208387E290E027E230E0F90124
S1130AC020812460FC01208387E290E027E230E06B
S1130AD0F90120812860FC01208387E290E027E26D
S1130AE030E0F90120812061FC01208387E290E05D
S1130AF027E230E0F90120812062FC01208388E2B2
S1130B0090E028E230E0F90120812460FC01208398
S1130B1088E290E028E230E0F90120812260FC01C3
S1130B20208380E090E0A0E2B1E489839A83AB83E0
S1130B30BC8320E030E04AE753E469817A818B8109
S1130B409C810E94F109DC01CB018B8B9C8BAD8BCA
S1130B50BE8B20E030E040E85FE36B897C898D89BF
S1130B609E890E942E0988232CF481E090E0988FBE
S1130B708F8B3FC020E03FEF4FE757E46B897C89C0
S1130B808D899E890E94EC0918164CF520E030E00E
S1130B9040E251E469817A818B819C810E94F10950
S1130BA0DC01CB01BC01CD010E943309DC01CB0186
S1130BB0988F8F8B0FC089E190E09A8F898F898DF0
S1130BC09A8D0197F1F79A8F898F8F89988D019764
S1130BD0988F8F8B8F89988D892B69F714C06B89B7
S1130BE07C898D899E890E943309DC01CB01988F11
S1130BF08F8B8F89988D9C8F8B8F8B8D9C8D01977C
S1130C00F1F79C8F8B8F88E290E028E230E0F901C5
S1130C1020812B7FFC01208380E090E0ACE8B2E4EB
S1130C208D839E83AF83B88720E030E04AE753E4A6
S1130C306D817E818F8198850E94F109DC01CB0151
S1130C4089879A87AB87BC8720E030E040E85FE380
S1130C5069857A858B859C850E942E0988232CF4CE
S1130C6081E090E09E878D873FC020E03FEF4FE713
S1130C7057E469857A858B859C850E94EC09181652
S1130C804CF520E030E040E251E46D817E818F81BB
S1130C9098850E94F109DC01CB01BC01CD010E94C1
S1130CA03309DC01CB019E878D870FC089E190E079
S1130CB0988B8F878F8598890197F1F7988B8F8709
S1130CC08D859E8501979E878D878D859E85892B31
S1130CD069F714C069857A858B859C850E943309E0
S1130CE0DC01CB019E878D878D859E859A8B898BB0
S1130CF089899A890197F1F79A8B898B88E290E028
S1130D0028E230E0F90120812460FC01208388E29C
S1130D1090E028E230E0F90120812D7FFC0120835E
S1130D2081E20E94280583E10E94280586E00E9452
S1130D30280582EC0E94280580E20E94280589E0AB
S1130D400E94280580E80E94280580E40E94280566
S1130D5000E010E005C080E00E9437050F5F1F4FE0
S1130D60083FF1E01F07B8F388E00E9428058CE0F3
S1130D700E94280500006C960FB6F894DEBF0FBEE3
S1130D80CDBFDF91CF911F910F9108950F931F93C2
S1130D90CF93DF93CDB7DEB780E80E94280580E4C7
S1130DA00E942805109260031092610300E010E095
S1130DB007C0C80188599E4FFC0110820F5F1F4F66
S1130DC0083FF1E01F07A8F30000DF91CF911F91C6
S1130DD00F910895CF93DF9300D000D01F92CDB729
S1130DE0DEB78B836C834D838C818695869586953F
S1130DF0882F90E044E5489F9001499F300D1124CD
S1130E008B81882F90E0820F931F88599E4F9A837D
S1130E1089838D818823C9F089819A81FC0180812D
S1130E20482F8C81882F90E09C012770332781E024
S1130E3090E002C0880F991F2A95E2F7842B282F8F
S1130E4089819A81FC01208319C089819A81FC01DE
S1130E508081482F8C81882F90E09C012770332754
S1130E6081E090E002C0880F991F2A95E2F78095EF
S1130E708423282F89819A81FC01208300000F900C
S1130E800F900F900F900F90DF91CF9108950F93D3
S1130E901F93CF93DF9300D000D01F92CDB7DEB75E
S1130EA08C836D8310E065C000E04EC08C81882F78
S1130EB090E09C01205231099D81812F692F0E946D
S1130EC0860A482F50E0C901880F991F880F991F7F
S1130ED0820F931F840F951F8A559F4F9A8389838E
S1130EE089819A81FC0184918B838B81282F30E046
S1130EF09D81802F692F0E94860A882F90E0A90186
S1130F0002C0559547958A95E2F7CA0181709927E1
S1130F10892B61F080916103982F900F8091600379
S1130F20810F41E0692F0E94EA060BC080916103A2
S1130F30982F900F80916003810F40E0692F0E94E9
S1130F40EA06802F01E0080F402F50E08D81282F02
S1130F5030E0C901880F991F880F991F880F991FC6
S1130F60821B930B481759070CF4A0CF812F11E073
S1130F70180F412F50E08D81282F30E0C901880FD0
S1130F80991F880F991F820F931F481759070CF454
S1130F908BCF209160039D81892F880F880F890F43
S1130FA0820F8F5F8093600380916003843570F0BB
S1130FB010926003209161039D81892F880F880F0F
S1130FC0880F891B820F8F5F809361038091610377
S1130FD0803320F0109260031092610300000F90A0
S1130FE00F900F900F900F90DF91CF911F910F9161
S1130FF00895CF93DF9300D01F92CDB7DEB79A83C5
S113100089836B830CC089819A819C012F5F3F4F38
S11310103A832983FC0180816B810E94470789817F
S11310209A81FC018081882371F700000F900F9052
S11310300F90DF91CF910895CF93DF9300D0CDB778
S1131040DEB789836A838981882F90E0092E000C9A
S1131050AA0BBB0B40E050E02EE130E0841B950B63
S11310602817390708F4BFC08C5C9F4FFC010C940F
S1131070B10A6A818AE091E00E94F907B4C06A81EA
S11310808DE091E00E94F907AEC06A8180E191E0B1
S11310900E94F907A8C06A8183E191E00E94F907E0
S11310A0A2C06A8186E191E00E94F9079CC06A812E
S11310B089E191E00E94F90796C06A818CE191E090
S11310C00E94F90790C06A818FE191E00E94F907BC
S11310D08AC06A8182E291E00E94F90784C06A8131
S11310E085E291E00E94F9077EC06A8188E291E07E
S11310F00E94F90778C06A818BE291E00E94F907A7
S113110072C06A818EE291E00E94F9076CC06A8124
S113111081E391E00E94F90766C06A8184E391E06B
S11311200E94F90760C06A8187E391E00E94F90791
S11311305AC06A818AE391E00E94F90754C06A8127
S11311408DE391E00E94F9074EC06A8180E491E04A
S11311500E94F90748C06A8183E491E00E94F9077C
S113116042C06A8186E491E00E94F9073CC06A812A
S113117089E491E00E94F90736C06A818CE491E029
S11311800E94F90730C06A818FE491E00E94F90758
S11311902AC06A8182E591E00E94F90724C06A812D
S11311A085E591E00E94F9071EC06A8188E591E017
S11311B00E94F90718C06A818BE591E00E94F90743
S11311C012C06A818EE591E00E94F9070CC06A8121
S11311D081E691E00E94F90706C06A8184E691E005
S11311E00E94F907000000000F900F90DF91CF914B
S11311F00895CF93DF9300D0CDB7DEB789836A8398
S11312008981809360038A818093610300000F9039
S11312100F90DF91CF9108950F931F93CF93DF9396
S1131220CDB7DEB780E80E94280580E40E94280537
S113123000E010E009C0C80188599E4FFC0180817C
S11312400E9437050F5F1F4F083FF1E01F0798F317
S11312500000DF91CF911F910F9108950E949F0983
S113126008F481E008950E94CB0988F09F5798F014
S1131270B92F9927B751B0F0E1F0660F771F881F97
S1131280991F1AF0BA95C9F714C0B13091F00E94B1
S1131290E509B1E008950C94E509672F782F8827B4
S11312A0B85F39F0B93FCCF3869577956795B395D8
S11312B0D9F73EF490958095709561957F4F8F4F47
S11312C09F4F0895E89409C097FB3EF4909580954C
S11312D0709561957F4F8F4F9F4F9923A9F0F92FF8
S11312E096E9BB279395F695879577956795B79576
S11312F0F111F8CFFAF4BB0F11F460FF1BC06F5F5C
S11313007F4F8F4F9F4F16C0882311F096E911C06D
S1131310772321F09EE8872F762F05C0662371F08E
S113132096E8862F70E060E02AF09A95660F771FA2
S1131330881FDAF7880F9695879597F90895990F7E
S11313400008550FAA0BE0E8FEEF16161706E8078B
S1131350F907C0F012161306E407F50798F0621BAC
S1131360730B840B950B39F40A2661F0232B242B81
S1131370252B21F408950A2609F4A140A6958FEFA0
S1131380811D811D089557FD9058440F551F59F034
S11313905F3F71F04795880F97FB991F61F09F3F5E
S11313A079F087950895121613061406551FF2CF87
S11313B04695F1DF08C0161617061806991FF1CFD7
S11313C086957105610508940895E894BB276627FE
S11313D07727CB0197F908950E949F0908F48FEFAE
S11313E008950E94040A0C94750A0E94670A38F052
S11313F00E946E0A20F0952311F00C945E0A0C945E
S1131400640A11240C94E6090E94C30970F3959FA1
S1131410C1F3950F50E0551F629FF001729FBB27E7
S1131420F00DB11D639FAA27F00DB11DAA1F649F83
S11314306627B00DA11D661F829F2227B00DA11D36
S1131440621F739FB00DA11D621F839FA00D611DBC
S1131450221F749F3327A00D611D231F849F600DDD
S1131460211D822F762F6A2F11249F5750409AF006
S1131470F1F088234AF0EE0FFF1FBB1F661F771F92
S1131480881F91505040A9F79E3F510580F00C945D
S11314905E0A0C94E6095F3FE4F3983ED4F3869524
S11314A077956795B795F795E7959F5FC1F7FE2BFD
S11314B0880F911D9695879597F9089597F99F67D9
S11314C080E870E060E008959FEF80EC08950024C8
S11314D00A941616170618060906089500240A9495
S11314E012161306140605060895092E0394000C1B
S11314F011F4882352F0BB0F40F4BF2B11F460FFAA
S113150004C06F5F7F4F8F4F9F4F0895991B79E001
S113151004C0991F961708F0961B881F7A95C9F77F
S113152080950895052E97FB1EF400940E94A90A45
S113153057FD07D00E94B70A07FC03D04EF40C9461
S1131540A90A50954095309521953F4F4F4F5F4FD5
S1131550089590958095709561957F4F8F4F9F4F1B
S11315600895EE0FFF1F0590F491E02D0994A1E278
S11315701A2EAA1BBB1BFD010DC0AA1FBB1FEE1F09
S1131580FF1FA217B307E407F50720F0A21BB30B54
S1131590E40BF50B661F771F881F991F1A9469F7D0
S11315A060957095809590959B01AC01BD01CF012C
S10915B00895F894FFCF3A
S11315B605726573702F6D696E003030003031002E
S11315C630320030330030340030350030360030ED
S11315D637003038003039003130003131003132D3
S11315E600313300313400313500313600313700F3
S11315F631380031390032300032310032320032B3
S11316063300323400323500323600323700323895
S10B16160032390033300000FA
S9030000FC
