S01C0000535052494E542032204170706C69636174696F6E2E7372656342
S11300000C9453000C9470000C9470000C947000C9
S11300100C9470000C9470000C9470000C9470009C
S11300200C9470000C9470000C9470000C9470008C
S11300300C9470000C9470000C9470000C9470007C
S11300400C9470000C9470000C9470000C9470006C
S11300500C9470000C9470000C9470000C9470005C
S11300600C9470000C947000B302B802BE02C40277
S1130070CA02D002D602DC02E202E802EE02F40274
S1130080FA02000306030C03120318031E032403DD
S11300902A03300336033C03420348034E0354034C
S11300A05A036003660311241FBECFEFD8E0DEBFFE
S11300B0CDBF11E0A0E0B1E0E2E7FBE002C00590B3
S11300C00D92A430B107D9F721E0A4E0B1E001C05A
S11300D01D92A830B207E1F70E9485000C94B70581
S11300E00C940000FC010FB6F89460910401709127
S11300F0050180910601909107010FBE309721F010
S113010060837183828393830895CF93DF931F92D7
S1130110CDB7DEB780E090E00E947200DC01CB0135
S11301200E948A050E94850529E130E0B9010E94F8
S1130130CA048B5F8983CE0101960E948A02CE0194
S113014001960E940601F7CFCF93DF9300D0CDB77D
S1130150DEB79A8389838AE290E0FC0180818AE297
S113016090E0FC0110828BE290E02BE230E0F90198
S113017020812F61FC01208389E290E0FC018081D1
S1130180882F90E081709927892BC1F489819A8105
S1130190FC0180819181FC0180818E3178F4898118
S11301A09A81FC018081918129813A81F901208120
S11301B03181F90120812F5FFC01208389E290E0E5
S11301C0FC018081882F90E082709927892BC1F4EB
S11301D089819A81FC0180819181FC018081863032
S11301E078F089819A81FC018081918129813A8109
S11301F0F90120813181F90120812150FC01208302
S113020000000F900F90DF91CF910895CF93DF936B
S1130210CDB7DEB7A2970FB6F894DEBF0FBECDBF41
S11302209AA389A384E290E0FC01808184E290E0B7
S11302302FEFFC0120831A821982A9C0CE01819676
S11302400E94A40085E290E025E230E0F9012081DB
S1130250422F21E030E0098002C0220F331F0A94AC
S1130260E2F7242BFC01208389A19AA1FC0180815F
S1130270882F90E082959295907F9827807F982789
S11302809C01990F440B550B80E69AEEA0E0B0E078
S1130290BC01CD010E94DE04DA01C901BC01CD011B
S11302A00E94A803DC01CB0189879A87AB87BC87AE
S11302B020E030E04AE755E469857A858B859C85A2
S11302C00E943504DC01CB018D879E87AF87B88BF4
S11302D020E030E040E85FE36D857E858F85988976
S11302E00E94720388232CF481E090E09A8B898B1E
S11302F03FC020E03FEF4FE757E46D857E858F8553
S113030098890E94300418164CF520E030E040E251
S113031051E469857A858B859C850E943504DC01CE
S1130320CB01BC01CD010E947703DC01CB019A8B88
S1130330898B0FC080E991E09C8B8B8B8B899C8986
S11303400197F1F79C8B8B8B89899A8901979A8BFA
S1130350898B89899A89892B69F714C06D857E8573
S11303608F8598890E947703DC01CB019A8B898B56
S113037089899A899E8B8D8B8D899E890197F1F746
S11303809E8B8D8B89819A8101969A838983898139
S11303909A8108970CF452CF87E090E09C838B837A
S11303A0AAC0CE0181960E94A40085E290E025E2D5
S11303B030E0F9012081422F21E030E00B8002C0BF
S11303C0220F331F0A94E2F720952423FC01208393
S11303D089A19AA1FC018081882F90E08295929551
S11303E0907F9827807F98279C01990F440B550B89
S11303F080E69AEEA0E0B0E0BC01CD010E94DE04EC
S1130400DA01C901BC01CD010E94A803DC01CB01C2
S11304108D839E83AF83B88720E030E04AE755E4BC
S11304206D817E818F8198850E943504DC01CB012A
S11304308F8B988FA98FBA8F20E030E040E85FE37C
S11304406F89788D898D9A8D0E94720388232CF48C
S113045081E090E09C8F8B8F3FC020E03FEF4FE71F
S113046057E46F89788D898D9A8D0E94300418160F
S11304704CF520E030E040E251E46D817E818F81D3
S113048098850E943504DC01CB01BC01CD010E949A
S11304907703DC01CB019C8F8B8F0FC080E991E047
S11304A09E8F8D8F8D8D9E8D0197F1F79E8F8D8FF1
S11304B08B8D9C8D01979C8F8B8F8B8D9C8D892B25
S11304C069F714C06F89788D898D9A8D0E9477039E
S11304D0DC01CB019C8F8B8F8B8D9C8D98A38F8F90
S11304E08F8D98A10197F1F798A38F8F8B819C81B1
S11304F001979C838B838B819C8199230CF051CF32
S11305000000A2960FB6F894DEBF0FBECDBFDF91F8
S1130510CF910895CF93DF9300D0CDB7DEB79A8300
S1130520898387E290E027E230E0F90120812F6798
S1130530FC01208389819A81FC018081882F90E0CD
S1130540092E000CAA0BBB0B40E050E02EE130E07A
S1130550841B950B2817390708F4BEC08C5C9F4F89
S1130560FC010C94FD0488E290E0FC011082B4C00C
S113057088E290E021E0FC012083AEC088E290E0B4
S113058022E0FC012083A8C088E290E023E0FC0183
S11305902083A2C088E290E024E0FC0120839CC078
S11305A088E290E025E0FC01208396C088E290E098
S11305B026E0FC01208390C088E290E027E0FC0163
S11305C020838AC088E290E028E0FC01208384C074
S11305D088E290E029E0FC0120837EC088E290E07C
S11305E02AE0FC01208378C088E290E02BE0FC0143
S11305F0208372C088E290E02CE0FC0120836CC070
S113060088E290E02DE0FC01208366C088E290E05F
S11306102EE0FC01208360C088E290E02FE0FC0122
S113062020835AC088E290E020E1FC01208354C07A
S113063088E290E021E1FC0120834EC088E290E052
S113064022E1FC01208348C088E290E023E1FC0120
S1130650208342C088E290E024E1FC0120833CC076
S113066088E290E025E1FC01208336C088E290E036
S113067026E1FC01208330C088E290E027E1FC0100
S113068020832AC088E290E028E1FC01208324C072
S113069088E290E029E1FC0120831EC088E290E01A
S11306A02AE1FC01208318C088E290E02BE1FC01E0
S11306B0208312C088E290E02CE1FC0120830CC06E
S11306C088E290E02DE1FC01208306C088E290E0FE
S11306D02EE1FC012083000000000F900F90DF91B9
S11306E0CF9108950E94E30308F481E008950E94E5
S11306F00F0488F09F5798F0B92F9927B751B0F09D
S1130700E1F0660F771F881F991F1AF0BA95C9F791
S113071014C0B13091F00E942904B1E008950C9402
S11307202904672F782F8827B85F39F0B93FCCF3B5
S1130730869577956795B395D9F73EF4909580950E
S1130740709561957F4F8F4F9F4F0895E89409C02E
S113075097FB3EF490958095709561957F4F8F4FF0
S11307609F4F9923A9F0F92F96E9BB279395F69506
S1130770879577956795B795F111F8CFFAF4BB0F84
S113078011F460FF1BC06F5F7F4F8F4F9F4F16C0E8
S1130790882311F096E911C0772321F09EE8872F72
S11307A0762F05C0662371F096E8862F70E060E02E
S11307B02AF09A95660F771F881FDAF7880F9695A7
S11307C0879597F90895990F0008550FAA0BE0E84B
S11307D0FEEF16161706E807F907C0F012161306FF
S11307E0E407F50798F0621B730B840B950B39F43F
S11307F00A2661F0232B242B252B21F408950A26A5
S113080009F4A140A6958FEF811D811D089557FD20
S11308109058440F551F59F05F3F71F04795880F6A
S113082097FB991F61F09F3F79F087950895121601
S113083013061406551FF2CF4695F1DF08C01616AD
S113084017061806991FF1CF86957105610508945E
S11308500895E894BB2766277727CB0197F9089575
S11308600E94E30308F48FEF08950E9448040C9457
S1130870B9040E94AB0438F00E94B20420F095231E
S113088011F00C94A2040C94A80411240C942A04CE
S11308900E94070470F3959FC1F3950F50E0551F14
S11308A0629FF001729FBB27F00DB11D639FAA27C1
S11308B0F00DB11DAA1F649F6627B00DA11D661F10
S11308C0829F2227B00DA11D621F739FB00DA11D31
S11308D0621F839FA00D611D221F749F3327A00DEB
S11308E0611D231F849F600D211D822F762F6A2F87
S11308F011249F5750409AF0F1F088234AF0EE0FEC
S1130900FF1FBB1F661F771F881F91505040A9F718
S11309109E3F510580F00C94A2040C942A045F3F7E
S1130920E4F3983ED4F3869577956795B795F79554
S1130930E7959F5FC1F7FE2B880F911D96958795CC
S113094097F9089597F99F6780E870E060E008954B
S11309509FEF80EC089500240A94161617061806D3
S11309600906089500240A941216130614060506AF
S11309700895092E0394000C11F4882352F0BB0F40
S113098040F4BF2B11F460FF04C06F5F7F4F8F4FA3
S11309909F4F089597FB072E16F4009407D077FD18
S11309A009D00E94030507FC05D03EF4909581957B
S11309B09F4F0895709561957F4F0895052E97FB7D
S11309C01EF400940E94F50457FD07D00E941705F9
S11309D007FC03D04EF40C94F504509540953095E3
S11309E021953F4F4F4F5F4F089590958095709597
S11309F061957F4F8F4F9F4F0895EE0FFF1F059016
S1130A00F491E02D0994AA1BBB1B51E107C0AA1F56
S1130A10BB1FA617B70710F0A61BB70B881F991F9B
S1130A205A95A9F780959095BC01CD010895A1E24E
S1130A301A2EAA1BBB1BFD010DC0AA1FBB1FEE1F54
S1130A40FF1FA217B307E407F50720F0A21BB30B9F
S1130A50E40BF50B661F771F881F991F1A9469F71B
S1130A6060957095809590959B01AC01BD01CF0177
S1130A7008958F929F92AF92BF92CF92DF92EF929E
S1130A80FF92CF93DF93EC01688179818A819B8106
S1130A90611571058105910521F464E279ED8BE519
S1130AA097E02DE133EF41E050E00E94DE0449017C
S1130AB05A019B01AC01A7EAB1E40E9495056B01C0
S1130AC07C01ACEEB4EFA50194010E94A305DC0106
S1130AD0CB018C0D9D1DAE1DBF1DB7FF03C001973B
S1130AE0A109B04888839983AA83BB839F77DF9148
S1130AF0CF91FF90EF90DF90CF90BF90AF909F90F9
S1130B008F9008950E943905089580E091E00E9435
S1130B1039050895A0E0B0E08093000190930101AD
S1130B20A0930201B093030108950E94A805A59F14
S1130B30900DB49F900DA49F800D911D11240895D4
S1130B40B7FF0C9495050E949505821B930B08959D
S1130B50A29FB001B39FC001A39F700D811D1124FA
S1130B60911DB29F700D811D1124911D0895F8945B
S1050B70FFCFB1
S1070B72010000007A
S9030000FC
