:100000000C9424010C9443010C9405020C944101BE
:100010000C9441010C943F030C9441010C94410158
:100020000C9441010C9441010C9441010C94410148
:100030000C9441010C9441010C94C7020C944101B1
:100040000C9441010C9441010C94CF030C94410198
:100050000C9441010C9441010C9441010C94410118
:100060000C9441010C944101000000000000005F6D
:1000700000000007000700147F147F14242A7F2A41
:10008000122313086462364955225000050300000C
:10009000001C2241000041221C0014083E081408E4
:1000A000083E0808005030000008080808080060F2
:1000B00060000020100804023E5149453E00427F86
:1000C000400042615149462141454B311814127F8D
:1000D0001027454545393C4A494930017109050316
:1000E0003649494936064949291E0036360000007E
:1000F0005636000008142241001414141414004150
:100100002214080201510906324979413E7E11113B
:10011000117E7F494949363E414141227F4141227A
:100120001C7F494949417F090909013E4149497AF2
:100130007F0808087F00417F41002040413F017F48
:10014000081422417F404040407F020C027F7F0420
:1001500008107F3E4141413E7F090909063E415159
:10016000215E7F09192946464949493101017F012C
:10017000013F4040403F1F2040201F3F4038403F4C
:100180006314081463070870080761514945430068
:100190007F41410002040810200041417F00040219
:1001A0000102044040404040000102040020545439
:1001B00054787F48444438384444442038444448C0
:1001C0007F3854545418087E0901020C5252523E92
:1001D0007F0804047800447D40002040443D007FB7
:1001E0001028440000417F40007C041804787C08FB
:1001F00004047838444444387C1414140808141453
:10020000187C7C080404084854545420043F44409B
:10021000203C4040207C1C2040201C3C4030403C86
:1002200044281028440C5050503C4464544C440022
:100230000836410000007F00000041360800100829
:10024000081008000000000011241FBECFEFD8E006
:10025000DEBFCDBF11E0A0E0B1E0E6ECF2E202C00B
:1002600005900D92A033B107D9F723E0A0E3B1E0E8
:1002700001C01D92AD33B207E1F70E944A040C940D
:1002800061110C9400001F920F9200905F000F927A
:1002900011242F933F934F935F936F937F938F938B
:1002A0009F93AF93BF93EF93FF93CF93DF93CDB71C
:1002B000DEB72E97DEBFCDBF809100018E3108F0F2
:1002C00089C07DC080E090E0A6E1B3E489839A8391
:1002D000AB83BC8320E030E04AE755E469817A8152
:1002E0008B819C810E949C0DDC01CB018D839E83C0
:1002F000AF83B88720E030E040E85FE36D817E8126
:100300008F8198850E94380C88232CF481E090E03E
:100310009A8789873FC020E03FEF4FE757E46D8120
:100320007E818F8198850E94970D18164CF520E0EC
:1003300030E040E251E469817A818B819C810E94A6
:100340009C0DDC01CB01BC01CD010E94B60CDC018F
:10035000CB019A8789870FC080E991E09C878B87C2
:100360008B859C850197F1F79C878B8789859A857A
:1003700001979A87898789859A85892B69F714C09F
:100380006D817E818F8198850E94B60CDC01CB0146
:100390009A87898789859A859E878D878D859E8591
:1003A0000197F1F79E878D87809100018E3128F4A7
:1003B000809100018F5F809300010E949B0589E27C
:1003C00090E0FC018081882F90E084709927892B30
:1003D00009F478CF00002E960FB6F894DEBF0FBE5A
:1003E000CDBFDF91CF91FF91EF91BF91AF919F91E1
:1003F0008F917F916F915F914F913F912F910F90CE
:1004000000925F000F901F9018951F920F9200901E
:100410005F000F9211242F933F934F935F936F933D
:100420007F938F939F93AF93BF93EF93FF93CF935C
:10043000DF93CDB7DEB72E97DEBFCDBF8091000131
:10044000863008F489C07DC080E090E0A6E1B3E486
:1004500089839A83AB83BC8320E030E04AE755E48C
:1004600069817A818B819C810E949C0DDC01CB018A
:100470008D839E83AF83B88720E030E040E85FE360
:100480006D817E818F8198850E94380C88232CF4A1
:1004900081E090E09A8789873FC020E03FEF4FE7F7
:1004A00057E46D817E818F8198850E94970D181683
:1004B0004CF520E030E040E251E469817A818B81A3
:1004C0009C810E949C0DDC01CB01BC01CD010E94EE
:1004D000B60CDC01CB019A8789870FC080E991E0D7
:1004E0009C878B878B859C850197F1F79C878B87F1
:1004F00089859A8501979A87898789859A85892B25
:1005000069F714C06D817E818F8198850E94B60C39
:10051000DC01CB019A87898789859A859E878D879B
:100520008D859E850197F1F79E878D8780910001CB
:10053000863028F0809100018150809300010E9454
:100540009B0589E290E0FC018081882F90E0887013
:100550009927892B09F478CF00002E960FB6F894CE
:10056000DEBF0FBECDBFDF91CF91FF91EF91BF9165
:10057000AF919F918F917F916F915F914F913F913B
:100580002F910F9000925F000F901F9018951F926F
:100590000F9200905F000F9211242F933F934F937F
:1005A0005F936F937F938F939F93AF93BF93EF93DB
:1005B000FF93CF93DF93CDB7DEB78BE290E02BE2D2
:1005C00030E0F901308120E22327FC012083809173
:1005D000300190913101A0913201B0913301019627
:1005E000A11DB11D8093300190933101A093320180
:1005F000B09333018091300190913101A09132018B
:10060000B091330126E930E040E050E0BC01CD017B
:100610000E94150EDC01CB01892B8A2B8B2B11F448
:100620000E9485068091300190913101A0913201A4
:10063000B091330128EC30E040E050E0BC01CD0146
:100640000E94150EDC01CB01892B8A2B8B2B11F418
:100650000E949B050000DF91CF91FF91EF91BF9128
:10066000AF919F918F917F916F915F914F913F914A
:100670002F910F9000925F000F901F9018951F927E
:100680000F9200905F000F921124EF92FF920F9350
:100690001F932F933F934F935F936F937F938F930A
:1006A0009F93AF93BF93EF93FF93CF93DF93CDB718
:1006B000DEB72091300130913101409132015091EB
:1006C00033018091340190913501A0913601B091B0
:1006D000370179018A01E81AF90A0A0B1B0BD801C4
:1006E000C701BC01CD010E94E50CDC01CB019C01DE
:1006F000AD01BC01CD010E94CC0BDC01CB019C0102
:10070000AD0160E070E68AE697E40E943D0CDC01F2
:10071000CB01BC01CD010E94B60CDC01CB01809362
:100720000101209134013091350140913601509101
:1007300037018091300190913101A0913201B09147
:100740003301281739074A075B0780F4809130018D
:1007500090913101A0913201B09133018093340125
:1007600090933501A0933601B09337010000DF91DB
:10077000CF91FF91EF91BF91AF919F918F917F9119
:100780006F915F914F913F912F911F910F91FF902A
:10079000EF900F9000925F000F901F9018951F929E
:1007A0000F9200905F000F9211242F933F934F936D
:1007B0005F936F937F938F939F93AF93BF93EF93C9
:1007C000FF93CF93DF931F92CDB7DEB70E94B4079C
:1007D000898389818B3331F481E0809338011092D1
:1007E000390142C089818A3381F4109238018091A5
:1007F00039018730C8F586E0EFE0F1E0A7E0B1E02D
:1008000001900D928A95E1F72FC0809138018130D7
:1008100031F4809139018F5F8093390109C086E0FE
:10082000EFE0F1E0A7E0B1E001900D928A95E1F7E9
:1008300080913901883068F01092390110923801A6
:1008400086E0EFE0F1E0A7E0B1E001900D928A953B
:10085000E1F780913801813039F4809139018823A2
:1008600019F089810E94C60700000F90DF91CF9197
:10087000FF91EF91BF91AF919F918F917F916F9178
:100880005F914F913F912F910F9000925F000F90D9
:100890001F901895CF93DF93CDB7DEB78AE290E033
:1008A00021EAFC0120838BE290E02CE0FC01208314
:1008B00084E290E02FEFFC01208387E290E02CE7B8
:1008C000FC01208388E290E0FC01108289E690E040
:1008D0002AE0FC0120838DE390E023E0FC012083EB
:1008E00088E690E024E0FC0120838DE690E020E1A2
:1008F000FC01208384E490E022E0FC01208385E475
:1009000090E023E0FC01208387E490E029EFFC01E4
:1009100020838EE690E022E0FC0120838AE790E0CD
:1009200027EEFC0120838BE790E0FC0110828CE72E
:1009300090E020E4FC0120838EE790E02EE3FC01B0
:10094000208388E790E0FC0180819181CC01A0E0C8
:10095000B0E0BC01CD010E94E50CDC01CB0120E040
:1009600030E040EA50E4BC01CD010E949C0DDC0166
:10097000CB0120E030EC4FE754E4BC01CD010E94F4
:100980003D0CDC01CB0120E030E040E85FE3BC013E
:10099000CD010E94CC0BDC01CB0120E030E040E235
:1009A00051E4BC01CD010E949C0DDC01CB01809380
:1009B000030190930401A0930501B093060178947C
:1009C00085EC92E00E9475070E949E0880E091E00D
:1009D0000E94EB04F9CFCF93DF9300D000D000D07A
:1009E000CDB7DEB79E838D831A82198245C085E21A
:1009F00090E025E230E0F9012081422F21E030E053
:100A0000098002C0220F331F0A94E2F7242BFC0155
:100A100020838D819E81FC018081882F90E0092EAA
:100A2000000CAA0BBB0BBC01CD010E94E70CDC0142
:100A3000CB0120E030E040E851E4BC01CD010E9450
:100A40009C0DDC01CB019C01AD0160E070E68AE603
:100A500097E40E943D0CDC01CB01BC01CD010E945A
:100A6000B60CDC01CB01BC01CD010E9413068981CB
:100A70009A8101969A83898389819A8108970CF4D7
:100A8000B6CF87E090E09C838B8346C085E290E000
:100A900025E230E0F9012081422F21E030E00B8097
:100AA00002C0220F331F0A94E2F720952423FC0191
:100AB00020838D819E81FC018081882F90E0092E0A
:100AC000000CAA0BBB0BBC01CD010E94E70CDC01A2
:100AD000CB0120E030E040E851E4BC01CD010E94B0
:100AE0009C0DDC01CB019C01AD0160E070E68AE663
:100AF00097E40E943D0CDC01CB01BC01CD010E94BA
:100B0000B60CDC01CB01BC01CD010E9413068B8128
:100B10009C8101979C838B838B819C8199230CF012
:100B2000B5CF000026960FB6F894DEBF0FBECDBF3E
:100B3000DF91CF910895CF93DF93CDB7DEB70E94B9
:100B40001E0A60E080E00E94960B80910001882FD1
:100B500090E061E00E94740B61E08DE20E94960BD0
:100B600061E085E191E00E94510B6AE080E00E9423
:100B7000960B80910101882F90E061E00E94740B38
:100B80006AE08DE20E94960B61E08CE191E00E94A8
:100B9000510B64E180E00E94960B80910201882F46
:100BA00090E061E00E94740B64E18DE20E94960B7C
:100BB00061E080E291E00E94510B6EE180E00E94D2
:100BC000960B8091030190910401A0910501B091D1
:100BD0000601BC01CD010E94AF0CDC01CB0161E03C
:100BE0000E94740B6EE18DE20E94960B61E087E239
:100BF00091E00E94510B68E280E00E94960B61E058
:100C000087E091E00E94510B68E28DE20E94960B12
:100C100061E08AE291E00E94510B0E94A90B000062
:100C2000DF91CF910895CF93DF93CDB7DEB72E97A5
:100C30000FB6F894DEBF0FBECDBF6B877C878D8764
:100C40009E8780E391E09A8789878B859C85AD8517
:100C5000BE8589839A83AB83BC8380913001909158
:100C60003101A0913201B09133018D839E83AF8316
:100C7000B88726C089859A85FC012081318142810F
:100C800053818D819E81AF81B88582179307A40718
:100C9000B507B0F48D819E81AF81B8850196A11D05
:100CA000B11D8D839E83AF83B88789819A81AB8183
:100CB000BC810197A109B10989839A83AB83BC8365
:100CC00089819A81AB81BC81892B8A2B8B2B91F6F0
:100CD00089859A85FC0180819181A281B3818F3FB2
:100CE0009F4FAF4FBF4F39F489859A85FC01108221
:100CF00011821282138200002E960FB6F894DEBF86
:100D00000FBECDBFDF91CF910895CF93DF93CDB7C5
:100D1000DEB78CE790E0FC0180818034A9F58CE798
:100D200090E021E4FC0120838EE790E02DE3FC01BC
:100D3000208388E790E0FC0180819181CC01A0E0D4
:100D4000B0E0BC01CD010E94E50CDC01CB0120E04C
:100D500030E04AEF52E4BC01CD010E949C0DDC0161
:100D6000CB0120E030EC4FE754E4BC01CD010E9400
:100D70003D0CDC01CB01BC01CD010E94B60CDC01B5
:100D8000CB018093020148C08CE790E020E4FC0195
:100D900020838EE790E02EE3FC01208388E790E03B
:100DA000FC0180819181CC01A0E0B0E0BC01CD01CB
:100DB0000E94E50CDC01CB0120E030E040EA50E489
:100DC000BC01CD010E949C0DDC01CB0120E030EC88
:100DD0004FE754E4BC01CD010E943D0CDC01CB0186
:100DE00020E030E040E85FE3BC01CD010E94CC0B85
:100DF000DC01CB0120E030E040E251E4BC01CD0158
:100E00000E949C0DDC01CB018093030190930401AF
:100E1000A0930501B0930601809103019091040114
:100E2000A0910501B091060120E030E04CE052E4D1
:100E3000BC01CD010E94380C8823B4F080910301DD
:100E400090910401A0910501B091060120E030E0ED
:100E500044E252E4BC01CD010E94970D181624F023
:100E6000809102018C3350F48BE290E02BE230E071
:100E7000F90120812068FC01208333C080910301A7
:100E800090910401A0910501B091060120E030E0AD
:100E90004CE052E4BC01CD010E94970D88230CF474
:100EA00020C08091030190910401A0910501B091AF
:100EB000060120E030E044E252E4BC01CD010E9492
:100EC000380C18160CF40DC0809102018C3348F0D8
:100ED0008BE290E02BE230E0F90120812F77FC01DA
:100EE00020830000DF91CF910895CF93DF9300D04E
:100EF000CDB7DEB79A83898385EC90E029813A816A
:100F0000232F3327FC01208384EC90E02981FC010E
:100F1000208381EC90E028E9FC01208382EC90E0C2
:100F200026E0FC01208300000F900F90DF91CF910D
:100F30000895CF93DF931F92CDB7DEB7898300006A
:100F400080EC90E0FC018081882F90E080729927EE
:100F5000892BB1F386EC90E02981FC01208300000D
:100F60000F90DF91CF910895CF93DF93CDB7DEB788
:100F7000000080EC90E0FC0180818823D4F786ECAF
:100F800090E0FC018081DF91CF910895CF93DF93B2
:100F900000D0CDB7DEB78A83198280913A01882FBD
:100FA00090E0855C9E4F2A81FC01208380913A016C
:100FB000882F90E0855C9E4FFC0180810E949907FC
:100FC00080913A018F5F80933A0180913A01873096
:100FD000D0F010923A018BE391E0892F8F938BE34D
:100FE00091E08F9387E091E0892F8F9387E091E0E4
:100FF0008F930E94670E0F900F900F900F9080912B
:101000002F0180933B0100000F900F90DF91CF9153
:1010100008951F93CF93DF9300D0CDB7DEB78983B8
:101020006A8388E290E028E230E0F90120812F7B9A
:10103000FC0120838A81882351F088E290E028E235
:1010400030E0F90120812860FC01208309C088E29A
:1010500090E028E230E0F9012081277FFC01208325
:1010600010E03CC08981882F90E0212F30E047E0DC
:1010700050E0BA01621B730B9B0102C095958795E6
:101080002A95E2F781709927892B51F088E290E048
:1010900028E230E0F90120812061FC01208309C0B1
:1010A00088E290E028E230E0F90120812F7EFC0107
:1010B000208388E290E028E230E0F901208120627C
:1010C000FC01208388E290E028E230E0F9012081F1
:1010D0002F7DFC012083812F11E0180F183010F2B2
:1010E00088E290E028E230E0F90120812064FC01F0
:1010F000208300000F900F90DF91CF911F910895F2
:10110000CF93DF931F92CDB7DEB7898360E08981EB
:101110000E94090800000F90DF91CF910895CF93AE
:10112000DF931F92CDB7DEB7898361E089810E948A
:10113000090800000F90DF91CF9108950F931F933E
:10114000CF93DF93CDB7DEB76C970FB6F894DEBFC1
:101150000FBECDBF87E290E027E230E0F9012081A9
:101160002064FC01208387E290E027E230E0F9016F
:1011700020812460FC01208387E290E027E230E0B8
:10118000F90120812860FC01208387E290E027E2BA
:1011900030E0F90120812061FC01208387E290E0AA
:1011A00027E230E0F90120812062FC01208388E2FF
:1011B00090E028E230E0F90120812460FC012083E6
:1011C00088E290E028E230E0F90120812064FC010F
:1011D000208380E090E0A0E2B1E489839A83AB832E
:1011E000BC8320E030E04AE753E469817A818B8157
:1011F0009C810E949C0DDC01CB018B8B9C8BAD8B69
:10120000BE8B20E030E040E85FE36B897C898D890C
:101210009E890E94380C88232CF481E090E0988FFE
:101220008F8B3FC020E03FEF4FE757E46B897C890D
:101230008D899E890E94970D18164CF520E030E0AC
:1012400040E251E469817A818B819C810E949C0DEE
:10125000DC01CB01BC01CD010E94B60CDC01CB014D
:10126000988F8F8B0FC089E190E09A8F898F898D3D
:101270009A8D0197F1F79A8F898F8F89988D0197B1
:10128000988F8F8B8F89988D892B69F714C06B8904
:101290007C898D899E890E94B60CDC01CB01988FD8
:1012A0008F8B8F89988D9C8F8B8F8B8D9C8D0197C9
:1012B000F1F79C8F8B8F88E290E028E230E0F90113
:1012C00020812B7FFC01208380E090E0ACE8B2E439
:1012D0008D839E83AF83B88720E030E04AE753E4F4
:1012E0006D817E818F8198850E949C0DDC01CB01F0
:1012F00089879A87AB87BC8720E030E040E85FE3CE
:1013000069857A858B859C850E94380C88232CF40E
:1013100081E090E09E878D873FC020E03FEF4FE760
:1013200057E469857A858B859C850E94970D1816F0
:101330004CF520E030E040E251E46D817E818F8108
:1013400098850E949C0DDC01CB01BC01CD010E945F
:10135000B60CDC01CB019E878D870FC089E190E040
:10136000988B8F878F8598890197F1F7988B8F8756
:101370008D859E8501979E878D878D859E85892B7E
:1013800069F714C069857A858B859C850E94B60CA7
:10139000DC01CB019E878D878D859E859A8B898BFD
:1013A00089899A890197F1F79A8B898B88E290E075
:1013B00028E230E0F90120812460FC01208388E2EA
:1013C00090E028E230E0F90120812F7BFC012083AE
:1013D00081E20E94800883E10E94800886E00E94EA
:1013E000800882EC0E94800880E20E94800889E0E8
:1013F0000E94800880E80E94800880E40E948008A3
:1014000000E010E005C080E00E948F080F5F1F4FD2
:10141000083FF1E01F07B8F388E00E9480088CE0E5
:101420000E94800800006C960FB6F894DEBF0FBED5
:10143000CDBFDF91CF911F910F9108950F931F930F
:10144000CF93DF93CDB7DEB780E80E94800880E4B9
:101450000E94800810923B0310923C0300E010E0D1
:1014600007C0C8018D5B9E4FFC0110820F5F1F4FAC
:10147000083FF1E01F07A8F30000DF91CF911F9113
:101480000F910895CF93DF9300D000D01F92CDB776
:10149000DEB78B836C834D838C818695869586958C
:1014A000882F90E044E5489F9001499F300D11241A
:1014B0008B81882F90E0820F931F8D5B9E4F9A83C4
:1014C00089838D818823C9F089819A81FC0180817B
:1014D000482F8C81882F90E09C012770332781E072
:1014E00090E002C0880F991F2A95E2F7842B282FDD
:1014F00089819A81FC01208319C089819A81FC012C
:101500008081482F8C81882F90E09C0127703327A1
:1015100081E090E002C0880F991F2A95E2F780953C
:101520008423282F89819A81FC01208300000F9059
:101530000F900F900F900F90DF91CF9108950F9320
:101540001F93CF93DF9300D000D01F92CDB7DEB7AB
:101550008C836D8310E065C000E04EC08C81882FC5
:1015600090E09C01205231099D81812F692F0E94BA
:10157000090E482F50E0C901880F991F880F991F45
:10158000820F931F840F951F88599F4F9A838983D9
:1015900089819A81FC0184918B838B81282F30E093
:1015A0009D81802F692F0E94090E882F90E0A9014C
:1015B00002C0559547958A95E2F7CA01817099272F
:1015C000892B61F080913C03982F900F80913B0311
:1015D000810F41E0692F0E94420A0BC080913C03B9
:1015E000982F900F80913B03810F40E0692F0E945C
:1015F000420A802F01E0080F402F50E08D81282FF4
:1016000030E0C901880F991F880F991F880F991F13
:10161000821B930B481759070CF4A0CF812F11E0C0
:10162000180F412F50E08D81282F30E0C901880F1D
:10163000991F880F991F820F931F481759070CF4A1
:101640008BCF20913B039D81892F880F880F890FB5
:10165000820F8F5F80933B0380913B03843570F052
:1016600010923B0320913C039D81892F880F880FA6
:10167000880F891B820F8F5F80933C0380913C030E
:10168000803320F010923B0310923C0300000F9037
:101690000F900F900F900F90DF91CF911F910F91AE
:1016A0000895CF93DF9300D01F92CDB7DEB79A8312
:1016B00089836B830CC089819A819C012F5F3F4F86
:1016C0003A832983FC0180816B810E949F0A898172
:1016D0009A81FC018081882371F700000F900F90A0
:1016E0000F90DF91CF910895CF93DF9300D000D07A
:1016F000CDB7DEB79B838A836C838981882F90E086
:101700009C018A819B814AE050E0B9010E94370E1A
:101710008981882F90E06C810E94510B00000F900E
:101720000F900F900F90DF91CF910895CF93DF939B
:1017300000D0CDB7DEB789836A83898180933B036C
:101740008A8180933C0300000F900F90DF91CF912E
:1017500008950F931F93CF93DF93CDB7DEB780E843
:101760000E94800880E40E94800800E010E009C028
:10177000C8018D5B9E4FFC0180810E948F080F5F26
:101780001F4F083FF1E01F0798F30000DF91CF9152
:101790001F910F9108955058BB27AA270E94E30B71
:1017A0000C945D0D0E944F0D38F00E94560D20F0F4
:1017B00039F49F3F19F426F40C944C0D0EF4E09587
:1017C000E7FB0C94460DE92F0E946E0D58F3BA17F3
:1017D000620773078407950720F079F4A6F50C9447
:1017E000900D0EF4E0950B2EBA2FA02D0B01B90130
:1017F00090010C01CA01A0011124FF27591B99F087
:10180000593F50F4503E68F11A16F040A22F232F92
:10181000342F4427585FF3CF469537952795A795E2
:10182000F0405395C9F77EF41F16BA0B620B730B89
:10183000840BBAF09150A1F0FF0FBB1F661F771FFA
:10184000881FC2F70EC0BA0F621F731F841F48F4AF
:10185000879577956795B795F7959E3F08F0B0CF38
:101860009395880F08F09927EE0F9795879508951F
:101870000E94220D08F481E008950E94510C0C94FE
:101880005D0D0E94560D58F00E944F0D40F029F456
:101890005F3F29F00C94460D51110C94910D0C945E
:1018A0004C0D0E946E0D68F39923B1F3552391F30B
:1018B000951B550BBB27AA2762177307840738F0BF
:1018C0009F5F5F4F220F331F441FAA1FA9F335D01C
:1018D0000E2E3AF0E0E832D091505040E695001CD0
:1018E000CAF72BD0FE2F29D0660F771F881FBB1F8A
:1018F000261737074807AB07B0E809F0BB0B802D68
:10190000BF01FF2793585F4F3AF09E3F510578F093
:101910000C94460D0C94910D5F3FE4F3983ED4F384
:10192000869577956795B795F7959F5FC9F7880F67
:10193000911D9695879597F90895E1E0660F771FB9
:10194000881FBB1F621773078407BA0720F0621B4A
:10195000730B840BBA0BEE1F88F7E09508950E9475
:10196000B60C6894B1110C94910D08950E94760DF7
:1019700088F09F5798F0B92F9927B751B0F0E1F050
:10198000660F771F881F991F1AF0BA95C9F714C000
:10199000B13091F00E94900DB1E008950C94900D3B
:1019A000672F782F8827B85F39F0B93FCCF3869539
:1019B00077956795B395D9F73EF490958095709596
:1019C00061957F4F8F4F9F4F0895E89409C097FB13
:1019D0003EF490958095709561957F4F8F4F9F4F06
:1019E0009923A9F0F92F96E9BB279395F69587954A
:1019F00077956795B795F111F8CFFAF4BB0F11F40D
:101A000060FF1BC06F5F7F4F8F4F9F4F16C08823B3
:101A100011F096E911C0772321F09EE8872F762FE9
:101A200005C0662371F096E8862F70E060E02AF02A
:101A30009A95660F771F881FDAF7880F9695879516
:101A400097F90895990F0008550FAA0BE0E8FEEFEB
:101A500016161706E807F907C0F012161306E40772
:101A6000F50798F0621B730B840B950B39F40A266B
:101A700061F0232B242B252B21F408950A2609F449
:101A8000A140A6958FEF811D811D089597F99F674D
:101A900080E870E060E008959FEF80EC08950024F6
:101AA0000A941616170618060906089500240A94C3
:101AB00012161306140605060895092E0394000C49
:101AC00011F4882352F0BB0F40F4BF2B11F460FFD8
:101AD00004C06F5F7F4F8F4F9F4F089557FD905801
:101AE000440F551F59F05F3F71F04795880F97FBE2
:101AF000991F61F09F3F79F087950895121613069C
:101B00001406551FF2CF4695F1DF08C016161706CA
:101B10001806991FF1CF86957105610508940895FF
:101B2000E894BB2766277727CB0197F908950E9491
:101B3000220D08F48FEF08950E94AF0D0C945D0DF7
:101B40000E944F0D38F00E94560D20F0952311F0A1
:101B50000C94460D0C944C0D11240C94910D0E9484
:101B60006E0D70F3959FC1F3950F50E0551F629F66
:101B7000F001729FBB27F00DB11D639FAA27F00DE6
:101B8000B11DAA1F649F6627B00DA11D661F829F0D
:101B90002227B00DA11D621F739FB00DA11D621FF2
:101BA000839FA00D611D221F749F3327A00D611D0F
:101BB000231F849F600D211D822F762F6A2F1124F1
:101BC0009F5750409AF0F1F088234AF0EE0FFF1F24
:101BD000BB1F661F771F881F91505040A9F79E3F7B
:101BE000510580F00C94460D0C94910D5F3FE4F389
:101BF000983ED4F3869577956795B795F795E795D1
:101C00009F5FC1F7FE2B880F911D9695879597F9D9
:101C10000895991B79E004C0991F961708F0961B48
:101C2000881F7A95C9F780950895A1E21A2EAA1BFC
:101C3000BB1BFD010DC0AA1FBB1FEE1FFF1FA2177C
:101C4000B307E407F50720F0A21BB30BE40BF50B79
:101C5000661F771F881F991F1A9469F76095709502
:101C6000809590959B01AC01BD01CF01089545324F
:101C7000510520F4423010F00C94420EFB0110820A
:101C8000CB010895BB274A3031F4992322F4BDE2F9
:101C9000909581959F4F0C944E0EBB27FB015527C5
:101CA000AA27880F991FAA1FA41710F0A41B8395B9
:101CB0005051B9F7A05DAA3308F0A95DA193009730
:101CC00079F7B111B1931192CB010C948010AEE071
:101CD000B0E0EDE6FEE00C9438110D891E8986E037
:101CE0008C831A8309838FEF9FE79E838D83AE01D8
:101CF000475E5F4F6F89788DCE0101960E94890EF5
:101D0000EF81F885E00FF11F10822E96E4E00C942D
:101D10005411ABE0B0E0EFE8FEE00C942A116C0146
:101D20007B018A01FC0117821682838181FFCCC16D
:101D3000CE0101963C01F6019381F70193FD859157
:101D400093FF81917F01882309F4BAC1853239F468
:101D500093FD859193FF81917F01853229F4B6012E
:101D600090E00E949010E7CF912C212C312CFFE1C4
:101D7000F315D8F08B3279F038F4803279F0833271
:101D8000A1F4232D20611DC08D3261F0803369F4F0
:101D9000232D216016C0832D8260382EE32DE46050
:101DA0003E2E2AC0F32DF8601DC037FC2DC020ED5B
:101DB000280F2A3040F08E32B9F436FC81C1232D31
:101DC0002064322E19C036FE06C08AE0989E200D8F
:101DD0001124922E11C0EAE02E9E200D1124222EF5
:101DE000F32DF0623F2E08C08C3621F4832D8068DD
:101DF000382E02C0883641F4F70193FD859193FF98
:101E000081917F018111B3CF982F9F7D955493309D
:101E100028F40C5F1F4F9FE399830DC0833631F088
:101E2000833771F0833509F059C021C0F8018081F2
:101E300089830E5F1F4F88248394912C530113C014
:101E40002801F2E04F0E511CF801A080B18036FE4F
:101E500003C0692D70E002C06FEF7FEFC5010E94E3
:101E600075104C018201F32DFF773F2E16C028011B
:101E700022E0420E511CF801A080B18036FE03C062
:101E8000692D70E002C06FEF7FEFC5010E946A10FC
:101E90004C01F32DF0683F2E820133FC1BC0822DD4
:101EA00090E088169906B0F4B60180E290E00E94B6
:101EB00090102A94F4CFF50137FC859137FE81917B
:101EC0005F01B60190E00E94901021102A9421E059
:101ED000821A91088114910471F7E8C0843611F0D8
:101EE000893641F5F80137FE07C060817181828132
:101EF00093810C5F1F4F08C060817181072E000C19
:101F0000880B990B0E5F1F4FF32DFF763F2E97FF27
:101F100009C090958095709561957F4F8F4F9F4F29
:101F2000F0683F2E2AE030E0A3010E94CC10882EFA
:101F3000861845C0853731F4232D2F7EB22E2AE036
:101F400030E025C0932D997FB92E8F36C1F018F45B
:101F5000883579F0B5C0803719F0883721F0B0C0E6
:101F6000E92FE061BE2EB4FE0DC0FB2DF460BF2E44
:101F700009C034FE0AC0292F2660B22E06C028E010
:101F800030E005C020E130E002C020E132E0F8019D
:101F9000B7FE07C060817181828193810C5F1F4F02
:101FA00006C06081718180E090E00E5F1F4FA30149
:101FB0000E94CC10882E8618FB2DFF773F2E36FE10
:101FC0000DC0232D2E7FA22E891458F434FE0BC091
:101FD00032FC09C0832D8E7EA82E05C0B82CA32C00
:101FE00003C0B82C01C0B92CA4FE0FC0FE01E80D3F
:101FF000F11D8081803321F49A2D997EA92E09C08C
:10200000A2FE06C0B394B39404C08A2D867809F06A
:10201000B394A3FC11C0A0FE06C0B21488F4280C2F
:10202000922C9B180EC0B21460F4B60180E290E0CE
:102030000E949010B394F7CFB21418F42B1802C07A
:10204000982C212CA4FE10C0B60180E390E00E94E1
:102050009010A2FE17C0A1FC03C088E790E002C068
:1020600088E590E0B6010CC08A2D867859F0A1FE73
:1020700002C08BE201C080E2A7FC8DE2B60190E0D5
:102080000E949010891438F4B60180E390E00E9419
:1020900090109A94F7CF8A94F301E80DF11D808196
:1020A000B60190E00E9490108110F5CF222009F433
:1020B00042CEB60180E290E00E9490102A94F6CFC2
:1020C000F6018681978102C08FEF9FEF2B96E2E1A8
:1020D0000C944611FC010590615070400110D8F736
:1020E000809590958E0F9F1F0895FC016150704060
:1020F00001900110D8F7809590958E0F9F1F08953D
:10210000DC01FC01672F71917723E1F7329704C05E
:102110007C916D9370836291AE17BF07C8F30895E9
:102120000F931F93CF93DF93FB01238121FD03C006
:102130008FEF9FEF2CC022FF16C04681578124816C
:1021400035814217530744F4A081B1819D012F5F6F
:102150003F4F318320838C93268137812F5F3F4F00
:102160003783268314C08B01EC01FB010084F185C9
:10217000E02D0995892BE1F6D80116968D919C9159
:102180001797019617969C938E931697CE01DF9121
:10219000CF911F910F910895FA01AA27283051F18C
:1021A000203181F1E8946F936E7F6E5F7F4F8F4F88
:1021B0009F4FAF4FB1E03ED0B4E03CD0670F781FE7
:1021C000891F9A1FA11D680F791F8A1F911DA11DCC
:1021D0006A0F711D811D911DA11D20D009F4689405
:1021E0003F912AE0269F11243019305D3193DEF6AD
:1021F000CF010895462F4770405D4193B3E00FD063
:10220000C9F7F6CF462F4F70405D4A3318F0495D4D
:1022100031FD4052419302D0A9F7EACFB4E0A69530
:102220009795879577956795BA95C9F70097610552
:10223000710508959B01AC010A2E069457954795A8
:1022400037952795BA95C9F7620F731F841F951F9D
:10225000A01D08952F923F924F925F926F927F92AE
:102260008F929F92AF92BF92CF92DF92EF92FF92A6
:102270000F931F93CF93DF93CDB7DEB7CA1BDB0B52
:102280000FB6F894DEBF0FBECDBF09942A883988F7
:1022900048885F846E847D848C849B84AA84B984FE
:1022A000C884DF80EE80FD800C811B81AA81B9810A
:1022B000CE0FD11D0FB6F894DEBF0FBECDBFED011E
:0622C0000895F894FFCF21
:1022C60005504600001042484848784D4D4D00459F
:1022D60052524F21007273702F6D6E0062706D0046
:1022E600252053704F3200BA43006D6D48670000D9
:00000001FF
